{
    "contractName": "GrantManager",
    "abi": [
        {
            "inputs": [
                {
                    "internalType": "uint256",
                    "name": "initialSupply",
                    "type": "uint256"
                }
            ],
            "stateMutability": "nonpayable",
            "type": "constructor"
        },
        {
            "anonymous": false,
            "inputs": [
                {
                    "indexed": true,
                    "internalType": "address",
                    "name": "owner",
                    "type": "address"
                },
                {
                    "indexed": true,
                    "internalType": "address",
                    "name": "spender",
                    "type": "address"
                },
                {
                    "indexed": false,
                    "internalType": "uint256",
                    "name": "value",
                    "type": "uint256"
                }
            ],
            "name": "Approval",
            "type": "event"
        },
        {
            "anonymous": false,
            "inputs": [
                {
                    "indexed": true,
                    "internalType": "address",
                    "name": "previousOwner",
                    "type": "address"
                },
                {
                    "indexed": true,
                    "internalType": "address",
                    "name": "newOwner",
                    "type": "address"
                }
            ],
            "name": "OwnershipTransferred",
            "type": "event"
        },
        {
            "anonymous": false,
            "inputs": [
                {
                    "indexed": false,
                    "internalType": "address",
                    "name": "account",
                    "type": "address"
                }
            ],
            "name": "Paused",
            "type": "event"
        },
        {
            "anonymous": false,
            "inputs": [
                {
                    "indexed": true,
                    "internalType": "address",
                    "name": "from",
                    "type": "address"
                },
                {
                    "indexed": true,
                    "internalType": "address",
                    "name": "to",
                    "type": "address"
                },
                {
                    "indexed": false,
                    "internalType": "uint256",
                    "name": "value",
                    "type": "uint256"
                }
            ],
            "name": "Transfer",
            "type": "event"
        },
        {
            "anonymous": false,
            "inputs": [
                {
                    "indexed": false,
                    "internalType": "address",
                    "name": "account",
                    "type": "address"
                }
            ],
            "name": "Unpaused",
            "type": "event"
        },
        {
            "inputs": [],
            "name": "PAUSER_ROLE",
            "outputs": [
                {
                    "internalType": "bytes32",
                    "name": "",
                    "type": "bytes32"
                }
            ],
            "stateMutability": "view",
            "type": "function"
        },
        {
            "inputs": [
                {
                    "internalType": "address",
                    "name": "owner",
                    "type": "address"
                },
                {
                    "internalType": "address",
                    "name": "spender",
                    "type": "address"
                }
            ],
            "name": "allowance",
            "outputs": [
                {
                    "internalType": "uint256",
                    "name": "",
                    "type": "uint256"
                }
            ],
            "stateMutability": "view",
            "type": "function"
        },
        {
            "inputs": [
                {
                    "internalType": "address",
                    "name": "spender",
                    "type": "address"
                },
                {
                    "internalType": "uint256",
                    "name": "amount",
                    "type": "uint256"
                }
            ],
            "name": "approve",
            "outputs": [
                {
                    "internalType": "bool",
                    "name": "",
                    "type": "bool"
                }
            ],
            "stateMutability": "nonpayable",
            "type": "function"
        },
        {
            "inputs": [
                {
                    "internalType": "uint256",
                    "name": "",
                    "type": "uint256"
                }
            ],
            "name": "awards",
            "outputs": [
                {
                    "internalType": "string",
                    "name": "awardeeName",
                    "type": "string"
                },
                {
                    "internalType": "string",
                    "name": "cageCode",
                    "type": "string"
                },
                {
                    "internalType": "string",
                    "name": "naicsCode",
                    "type": "string"
                },
                {
                    "internalType": "string",
                    "name": "grantNumber",
                    "type": "string"
                },
                {
                    "internalType": "uint256",
                    "name": "laborCLINValue",
                    "type": "uint256"
                },
                {
                    "internalType": "uint256",
                    "name": "travelCLINValue",
                    "type": "uint256"
                },
                {
                    "internalType": "uint256",
                    "name": "odcValue",
                    "type": "uint256"
                },
                {
                    "internalType": "uint256",
                    "name": "totalAwardValue",
                    "type": "uint256"
                },
                {
                    "internalType": "bool",
                    "name": "completed",
                    "type": "bool"
                }
            ],
            "stateMutability": "view",
            "type": "function"
        },
        {
            "inputs": [
                {
                    "internalType": "address",
                    "name": "account",
                    "type": "address"
                }
            ],
            "name": "balanceOf",
            "outputs": [
                {
                    "internalType": "uint256",
                    "name": "",
                    "type": "uint256"
                }
            ],
            "stateMutability": "view",
            "type": "function"
        },
        {
            "inputs": [
                {
                    "internalType": "uint256",
                    "name": "amount",
                    "type": "uint256"
                }
            ],
            "name": "burn",
            "outputs": [],
            "stateMutability": "nonpayable",
            "type": "function"
        },
        {
            "inputs": [
                {
                    "internalType": "address",
                    "name": "account",
                    "type": "address"
                },
                {
                    "internalType": "uint256",
                    "name": "amount",
                    "type": "uint256"
                }
            ],
            "name": "burnFrom",
            "outputs": [],
            "stateMutability": "nonpayable",
            "type": "function"
        },
        {
            "inputs": [
                {
                    "internalType": "string",
                    "name": "_awardeeName",
                    "type": "string"
                },
                {
                    "internalType": "string",
                    "name": "_cageCode",
                    "type": "string"
                },
                {
                    "internalType": "string",
                    "name": "_naicsCode",
                    "type": "string"
                },
                {
                    "internalType": "string",
                    "name": "_grantNumber",
                    "type": "string"
                },
                {
                    "internalType": "uint256",
                    "name": "_laborCLINValue",
                    "type": "uint256"
                },
                {
                    "internalType": "uint256",
                    "name": "_travelCLINValue",
                    "type": "uint256"
                },
                {
                    "internalType": "uint256",
                    "name": "_odcValue",
                    "type": "uint256"
                },
                {
                    "internalType": "uint256",
                    "name": "_totalAwardValue",
                    "type": "uint256"
                }
            ],
            "name": "createGrant",
            "outputs": [],
            "stateMutability": "nonpayable",
            "type": "function"
        },
        {
            "inputs": [],
            "name": "decimals",
            "outputs": [
                {
                    "internalType": "uint8",
                    "name": "",
                    "type": "uint8"
                }
            ],
            "stateMutability": "view",
            "type": "function"
        },
        {
            "inputs": [
                {
                    "internalType": "address",
                    "name": "spender",
                    "type": "address"
                },
                {
                    "internalType": "uint256",
                    "name": "subtractedValue",
                    "type": "uint256"
                }
            ],
            "name": "decreaseAllowance",
            "outputs": [
                {
                    "internalType": "bool",
                    "name": "",
                    "type": "bool"
                }
            ],
            "stateMutability": "nonpayable",
            "type": "function"
        },
        {
            "inputs": [
                {
                    "internalType": "address",
                    "name": "spender",
                    "type": "address"
                },
                {
                    "internalType": "uint256",
                    "name": "addedValue",
                    "type": "uint256"
                }
            ],
            "name": "increaseAllowance",
            "outputs": [
                {
                    "internalType": "bool",
                    "name": "",
                    "type": "bool"
                }
            ],
            "stateMutability": "nonpayable",
            "type": "function"
        },
        {
            "inputs": [
                {
                    "internalType": "address",
                    "name": "to",
                    "type": "address"
                },
                {
                    "internalType": "uint256",
                    "name": "amount",
                    "type": "uint256"
                }
            ],
            "name": "mint",
            "outputs": [],
            "stateMutability": "nonpayable",
            "type": "function"
        },
        {
            "inputs": [],
            "name": "name",
            "outputs": [
                {
                    "internalType": "string",
                    "name": "",
                    "type": "string"
                }
            ],
            "stateMutability": "view",
            "type": "function"
        },
        {
            "inputs": [],
            "name": "owner",
            "outputs": [
                {
                    "internalType": "address",
                    "name": "",
                    "type": "address"
                }
            ],
            "stateMutability": "view",
            "type": "function"
        },
        {
            "inputs": [],
            "name": "pause",
            "outputs": [],
            "stateMutability": "nonpayable",
            "type": "function"
        },
        {
            "inputs": [],
            "name": "paused",
            "outputs": [
                {
                    "internalType": "bool",
                    "name": "",
                    "type": "bool"
                }
            ],
            "stateMutability": "view",
            "type": "function"
        },
        {
            "inputs": [],
            "name": "renounceOwnership",
            "outputs": [],
            "stateMutability": "nonpayable",
            "type": "function"
        },
        {
            "inputs": [],
            "name": "symbol",
            "outputs": [
                {
                    "internalType": "string",
                    "name": "",
                    "type": "string"
                }
            ],
            "stateMutability": "view",
            "type": "function"
        },
        {
            "inputs": [],
            "name": "totalSupply",
            "outputs": [
                {
                    "internalType": "uint256",
                    "name": "",
                    "type": "uint256"
                }
            ],
            "stateMutability": "view",
            "type": "function"
        },
        {
            "inputs": [
                {
                    "internalType": "address",
                    "name": "recipient",
                    "type": "address"
                },
                {
                    "internalType": "uint256",
                    "name": "amount",
                    "type": "uint256"
                }
            ],
            "name": "transfer",
            "outputs": [
                {
                    "internalType": "bool",
                    "name": "",
                    "type": "bool"
                }
            ],
            "stateMutability": "nonpayable",
            "type": "function"
        },
        {
            "inputs": [
                {
                    "internalType": "address",
                    "name": "sender",
                    "type": "address"
                },
                {
                    "internalType": "address",
                    "name": "recipient",
                    "type": "address"
                },
                {
                    "internalType": "uint256",
                    "name": "amount",
                    "type": "uint256"
                }
            ],
            "name": "transferFrom",
            "outputs": [
                {
                    "internalType": "bool",
                    "name": "",
                    "type": "bool"
                }
            ],
            "stateMutability": "nonpayable",
            "type": "function"
        },
        {
            "inputs": [
                {
                    "internalType": "address",
                    "name": "newOwner",
                    "type": "address"
                }
            ],
            "name": "transferOwnership",
            "outputs": [],
            "stateMutability": "nonpayable",
            "type": "function"
        },
        {
            "inputs": [],
            "name": "unpause",
            "outputs": [],
            "stateMutability": "nonpayable",
            "type": "function"
        }
    ],
    "bytecode": "60806040523480156200001157600080fd5b5060405162001aec38038062001aec83398101604081905262000034916200033a565b60408051808201825260098152684e5346546f6b656e7360b81b6020808301918252835180850190945260048452631394d19160e21b908401528151919291620000819160039162000294565b5080516200009790600490602084019062000294565b505050620000b4620000ae620000d460201b60201c565b620000d8565b6005805460ff60a01b19169055620000cd33826200012a565b50620003b8565b3390565b600580546001600160a01b038381166001600160a01b0319831681179093556040519116919082907f8be0079c531659141344cd1fd0a4f28419497f9722a3daafe3b4186f6b6457e090600090a35050565b6001600160a01b038216620001865760405162461bcd60e51b815260206004820152601f60248201527f45524332303a206d696e7420746f20746865207a65726f20616464726573730060448201526064015b60405180910390fd5b620001946000838362000221565b8060026000828254620001a8919062000354565b90915550506001600160a01b03821660009081526020819052604081208054839290620001d790849062000354565b90915550506040518181526001600160a01b038316906000907fddf252ad1be2c89b69c2b068fc378daa952ba7f163c4a11628f55a4df523b3ef9060200160405180910390a35050565b62000235600554600160a01b900460ff1690565b15620002775760405162461bcd60e51b815260206004820152601060248201526f14185d5cd8589b194e881c185d5cd95960821b60448201526064016200017d565b6200028f8383836200028f60201b620006201760201c565b505050565b828054620002a2906200037b565b90600052602060002090601f016020900481019282620002c6576000855562000311565b82601f10620002e157805160ff191683800117855562000311565b8280016001018555821562000311579182015b8281111562000311578251825591602001919060010190620002f4565b506200031f92915062000323565b5090565b5b808211156200031f576000815560010162000324565b6000602082840312156200034d57600080fd5b5051919050565b600082198211156200037657634e487b7160e01b600052601160045260246000fd5b500190565b600181811c908216806200039057607f821691505b60208210811415620003b257634e487b7160e01b600052602260045260246000fd5b50919050565b61172480620003c86000396000f3fe608060405234801561001057600080fd5b506004361061014d5760003560e01c8063715018a6116100c3578063a457c2d71161007c578063a457c2d71461029e578063a9059cbb146102b1578063dd62ed3e146102c4578063e63ab1e9146102fd578063f2fde38b14610324578063fc5a5b631461033757600080fd5b8063715018a61461024557806379cc67901461024d5780638456cb59146102605780638d29ecb4146102685780638da5cb5b1461027b57806395d89b411461029657600080fd5b8063395093511161011557806339509351146101c75780633f4ba83a146101da57806340c10f19146101e457806342966c68146101f75780635c975abb1461020a57806370a082311461021c57600080fd5b806306fdde0314610152578063095ea7b31461017057806318160ddd1461019357806323b872dd146101a5578063313ce567146101b8575b600080fd5b61015a61035f565b6040516101679190611342565b60405180910390f35b61018361017e366004611378565b6103f1565b6040519015158152602001610167565b6002545b604051908152602001610167565b6101836101b33660046113a2565b610407565b60405160028152602001610167565b6101836101d5366004611378565b6104b6565b6101e26104f2565b005b6101e26101f2366004611378565b610526565b6101e26102053660046113de565b61055e565b600554600160a01b900460ff16610183565b61019761022a3660046113f7565b6001600160a01b031660009081526020819052604090205490565b6101e261056b565b6101e261025b366004611378565b61059f565b6101e2610625565b6101e26102763660046114b5565b610657565b6005546040516001600160a01b039091168152602001610167565b61015a610786565b6101836102ac366004611378565b610795565b6101836102bf366004611378565b61082e565b6101976102d2366004611586565b6001600160a01b03918216600090815260016020908152604080832093909416825291909152205490565b6101977f65d7a28e3265b37a6474929f336521b332c1681b933f6cb9f3376673440d862a81565b6101e26103323660046113f7565b61083b565b61034a6103453660046113de565b6108d3565b604051610167999897969594939291906115b9565b60606003805461036e90611639565b80601f016020809104026020016040519081016040528092919081815260200182805461039a90611639565b80156103e75780601f106103bc576101008083540402835291602001916103e7565b820191906000526020600020905b8154815290600101906020018083116103ca57829003601f168201915b5050505050905090565b60006103fe338484610b55565b50600192915050565b6000610414848484610c79565b6001600160a01b03841660009081526001602090815260408083203384529091529020548281101561049e5760405162461bcd60e51b815260206004820152602860248201527f45524332303a207472616e7366657220616d6f756e74206578636565647320616044820152676c6c6f77616e636560c01b60648201526084015b60405180910390fd5b6104ab8533858403610b55565b506001949350505050565b3360008181526001602090815260408083206001600160a01b038716845290915281205490916103fe9185906104ed90869061168a565b610b55565b6005546001600160a01b0316331461051c5760405162461bcd60e51b8152600401610495906116a2565b610524610e53565b565b6005546001600160a01b031633146105505760405162461bcd60e51b8152600401610495906116a2565b61055a8282610ef0565b5050565b6105683382610fdb565b50565b6005546001600160a01b031633146105955760405162461bcd60e51b8152600401610495906116a2565b6105246000611135565b60006105ab83336102d2565b9050818110156106095760405162461bcd60e51b8152602060048201526024808201527f45524332303a206275726e20616d6f756e74206578636565647320616c6c6f77604482015263616e636560e01b6064820152608401610495565b6106168333848403610b55565b6106208383610fdb565b505050565b6005546001600160a01b0316331461064f5760405162461bcd60e51b8152600401610495906116a2565b610524611187565b604080516101208101825289815260208082018a9052918101889052606081018790526080810186905260a0810185905260c0810184905260e081018390526000610100820181905260068054600181018255915281518051929360099092027ff652222313e28459528d920b65115c16c04f3efc82aaedc97be59f3f377c0d3f01926106e7928492019061125c565b506020828101518051610700926001850192019061125c565b506040820151805161071c91600284019160209091019061125c565b506060820151805161073891600384019160209091019061125c565b506080820151600482015560a0820151600582015560c0820151600682015560e08201516007820155610100909101516008909101805460ff19169115159190911790555050505050505050565b60606004805461036e90611639565b3360009081526001602090815260408083206001600160a01b0386168452909152812054828110156108175760405162461bcd60e51b815260206004820152602560248201527f45524332303a2064656372656173656420616c6c6f77616e63652062656c6f77604482015264207a65726f60d81b6064820152608401610495565b6108243385858403610b55565b5060019392505050565b60006103fe338484610c79565b6005546001600160a01b031633146108655760405162461bcd60e51b8152600401610495906116a2565b6001600160a01b0381166108ca5760405162461bcd60e51b815260206004820152602660248201527f4f776e61626c653a206e6577206f776e657220697320746865207a65726f206160448201526564647265737360d01b6064820152608401610495565b61056881611135565b600681815481106108e357600080fd5b906000526020600020906009020160009150905080600001805461090690611639565b80601f016020809104026020016040519081016040528092919081815260200182805461093290611639565b801561097f5780601f106109545761010080835404028352916020019161097f565b820191906000526020600020905b81548152906001019060200180831161096257829003601f168201915b50505050509080600101805461099490611639565b80601f01602080910402602001604051908101604052809291908181526020018280546109c090611639565b8015610a0d5780601f106109e257610100808354040283529160200191610a0d565b820191906000526020600020905b8154815290600101906020018083116109f057829003601f168201915b505050505090806002018054610a2290611639565b80601f0160208091040260200160405190810160405280929190818152602001828054610a4e90611639565b8015610a9b5780601f10610a7057610100808354040283529160200191610a9b565b820191906000526020600020905b815481529060010190602001808311610a7e57829003601f168201915b505050505090806003018054610ab090611639565b80601f0160208091040260200160405190810160405280929190818152602001828054610adc90611639565b8015610b295780601f10610afe57610100808354040283529160200191610b29565b820191906000526020600020905b815481529060010190602001808311610b0c57829003601f168201915b505050600484015460058501546006860154600787015460089097015495969295919450925060ff1689565b6001600160a01b038316610bb75760405162461bcd60e51b8152602060048201526024808201527f45524332303a20617070726f76652066726f6d20746865207a65726f206164646044820152637265737360e01b6064820152608401610495565b6001600160a01b038216610c185760405162461bcd60e51b815260206004820152602260248201527f45524332303a20617070726f766520746f20746865207a65726f206164647265604482015261737360f01b6064820152608401610495565b6001600160a01b0383811660008181526001602090815260408083209487168084529482529182902085905590518481527f8c5be1e5ebec7d5bd14f71427d1e84f3dd0314c0f7b2291e5b200ac8c7c3b925910160405180910390a3505050565b6001600160a01b038316610cdd5760405162461bcd60e51b815260206004820152602560248201527f45524332303a207472616e736665722066726f6d20746865207a65726f206164604482015264647265737360d81b6064820152608401610495565b6001600160a01b038216610d3f5760405162461bcd60e51b815260206004820152602360248201527f45524332303a207472616e7366657220746f20746865207a65726f206164647260448201526265737360e81b6064820152608401610495565b610d4a83838361120f565b6001600160a01b03831660009081526020819052604090205481811015610dc25760405162461bcd60e51b815260206004820152602660248201527f45524332303a207472616e7366657220616d6f756e7420657863656564732062604482015265616c616e636560d01b6064820152608401610495565b6001600160a01b03808516600090815260208190526040808220858503905591851681529081208054849290610df990849061168a565b92505081905550826001600160a01b0316846001600160a01b03167fddf252ad1be2c89b69c2b068fc378daa952ba7f163c4a11628f55a4df523b3ef84604051610e4591815260200190565b60405180910390a350505050565b600554600160a01b900460ff16610ea35760405162461bcd60e51b815260206004820152601460248201527314185d5cd8589b194e881b9bdd081c185d5cd95960621b6044820152606401610495565b6005805460ff60a01b191690557f5db9ee0a495bf2e6ff9c91a7834c1ba4fdd244a5e8aa4e537bd38aeae4b073aa335b6040516001600160a01b03909116815260200160405180910390a1565b6001600160a01b038216610f465760405162461bcd60e51b815260206004820152601f60248201527f45524332303a206d696e7420746f20746865207a65726f2061646472657373006044820152606401610495565b610f526000838361120f565b8060026000828254610f64919061168a565b90915550506001600160a01b03821660009081526020819052604081208054839290610f9190849061168a565b90915550506040518181526001600160a01b038316906000907fddf252ad1be2c89b69c2b068fc378daa952ba7f163c4a11628f55a4df523b3ef9060200160405180910390a35050565b6001600160a01b03821661103b5760405162461bcd60e51b815260206004820152602160248201527f45524332303a206275726e2066726f6d20746865207a65726f206164647265736044820152607360f81b6064820152608401610495565b6110478260008361120f565b6001600160a01b038216600090815260208190526040902054818110156110bb5760405162461bcd60e51b815260206004820152602260248201527f45524332303a206275726e20616d6f756e7420657863656564732062616c616e604482015261636560f01b6064820152608401610495565b6001600160a01b03831660009081526020819052604081208383039055600280548492906110ea9084906116d7565b90915550506040518281526000906001600160a01b038516907fddf252ad1be2c89b69c2b068fc378daa952ba7f163c4a11628f55a4df523b3ef9060200160405180910390a3505050565b600580546001600160a01b038381166001600160a01b0319831681179093556040519116919082907f8be0079c531659141344cd1fd0a4f28419497f9722a3daafe3b4186f6b6457e090600090a35050565b600554600160a01b900460ff16156111d45760405162461bcd60e51b815260206004820152601060248201526f14185d5cd8589b194e881c185d5cd95960821b6044820152606401610495565b6005805460ff60a01b1916600160a01b1790557f62e78cea01bee320cd4e420270b5ea74000d11b0c9f74754ebdbfc544b05a258610ed33390565b600554600160a01b900460ff16156106205760405162461bcd60e51b815260206004820152601060248201526f14185d5cd8589b194e881c185d5cd95960821b6044820152606401610495565b82805461126890611639565b90600052602060002090601f01602090048101928261128a57600085556112d0565b82601f106112a357805160ff19168380011785556112d0565b828001600101855582156112d0579182015b828111156112d05782518255916020019190600101906112b5565b506112dc9291506112e0565b5090565b5b808211156112dc57600081556001016112e1565b6000815180845260005b8181101561131b576020818501810151868301820152016112ff565b8181111561132d576000602083870101525b50601f01601f19169290920160200192915050565b60208152600061135560208301846112f5565b9392505050565b80356001600160a01b038116811461137357600080fd5b919050565b6000806040838503121561138b57600080fd5b6113948361135c565b946020939093013593505050565b6000806000606084860312156113b757600080fd5b6113c08461135c565b92506113ce6020850161135c565b9150604084013590509250925092565b6000602082840312156113f057600080fd5b5035919050565b60006020828403121561140957600080fd5b6113558261135c565b634e487b7160e01b600052604160045260246000fd5b600082601f83011261143957600080fd5b813567ffffffffffffffff8082111561145457611454611412565b604051601f8301601f19908116603f0116810190828211818310171561147c5761147c611412565b8160405283815286602085880101111561149557600080fd5b836020870160208301376000602085830101528094505050505092915050565b600080600080600080600080610100898b0312156114d257600080fd5b883567ffffffffffffffff808211156114ea57600080fd5b6114f68c838d01611428565b995060208b013591508082111561150c57600080fd5b6115188c838d01611428565b985060408b013591508082111561152e57600080fd5b61153a8c838d01611428565b975060608b013591508082111561155057600080fd5b5061155d8b828c01611428565b989b979a50959860808101359760a0820135975060c0820135965060e090910135945092505050565b6000806040838503121561159957600080fd5b6115a28361135c565b91506115b06020840161135c565b90509250929050565b60006101208083526115cd8184018d6112f5565b905082810360208401526115e1818c6112f5565b905082810360408401526115f5818b6112f5565b90508281036060840152611609818a6112f5565b6080840198909852505060a081019490945260c084019290925260e0830152151561010090910152949350505050565b600181811c9082168061164d57607f821691505b6020821081141561166e57634e487b7160e01b600052602260045260246000fd5b50919050565b634e487b7160e01b600052601160045260246000fd5b6000821982111561169d5761169d611674565b500190565b6020808252818101527f4f776e61626c653a2063616c6c6572206973206e6f7420746865206f776e6572604082015260600190565b6000828210156116e9576116e9611674565b50039056fea2646970667358221220d8513f1d0b97c1c3bd895aa89e74fe8e8b57b4bc29c44c5a180279c330fb1b0964736f6c63430008090033",
    "sourcePath": "/Users/christopherstone/Documents/GitHub/blockchain-developer-bootcamp-final-project/GrantMgmt/contracts/GovConMgmt.sol",
    "compiler": {
        "name": "solc",
        "version": "0.8.9+commit.e5eed63a"
    },
    "functionHashes": {
        "PAUSER_ROLE()": "e63ab1e9",
        "allowance(address,address)": "dd62ed3e",
        "approve(address,uint256)": "095ea7b3",
        "awards(uint256)": "fc5a5b63",
        "balanceOf(address)": "70a08231",
        "burn(uint256)": "42966c68",
        "burnFrom(address,uint256)": "79cc6790",
        "createGrant(string,string,string,string,uint256,uint256,uint256,uint256)": "8d29ecb4",
        "decimals()": "313ce567",
        "decreaseAllowance(address,uint256)": "a457c2d7",
        "increaseAllowance(address,uint256)": "39509351",
        "mint(address,uint256)": "40c10f19",
        "name()": "06fdde03",
        "owner()": "8da5cb5b",
        "pause()": "8456cb59",
        "paused()": "5c975abb",
        "renounceOwnership()": "715018a6",
        "symbol()": "95d89b41",
        "totalSupply()": "18160ddd",
        "transfer(address,uint256)": "a9059cbb",
        "transferFrom(address,address,uint256)": "23b872dd",
        "transferOwnership(address)": "f2fde38b",
        "unpause()": "3f4ba83a"
    },
    "gasEstimates": {
        "creation": {
            "codeDepositCost": "1184800",
            "executionCost": "infinite",
            "totalCost": "infinite"
        },
        "external": {
            "PAUSER_ROLE()": "283",
            "allowance(address,address)": "infinite",
            "approve(address,uint256)": "24642",
            "awards(uint256)": "infinite",
            "balanceOf(address)": "2673",
            "burn(uint256)": "53120",
            "burnFrom(address,uint256)": "infinite",
            "createGrant(string,string,string,string,uint256,uint256,uint256,uint256)": "infinite",
            "decimals()": "289",
            "decreaseAllowance(address,uint256)": "26910",
            "increaseAllowance(address,uint256)": "26957",
            "mint(address,uint256)": "infinite",
            "name()": "infinite",
            "owner()": "2412",
            "pause()": "29846",
            "paused()": "2432",
            "renounceOwnership()": "28140",
            "symbol()": "infinite",
            "totalSupply()": "2349",
            "transfer(address,uint256)": "53391",
            "transferFrom(address,address,uint256)": "infinite",
            "transferOwnership(address)": "28422",
            "unpause()": "29795"
        },
        "internal": {
            "_beforeTokenTransfer(address,address,uint256)": "infinite"
        }
    }
}