{
    "contractName": "GrantManager",
    "abi": [
        {
            "inputs": [],
            "stateMutability": "nonpayable",
            "type": "constructor"
        },
        {
            "anonymous": false,
            "inputs": [
                {
                    "indexed": true,
                    "internalType": "address",
                    "name": "owner",
                    "type": "address"
                },
                {
                    "indexed": true,
                    "internalType": "address",
                    "name": "spender",
                    "type": "address"
                },
                {
                    "indexed": false,
                    "internalType": "uint256",
                    "name": "value",
                    "type": "uint256"
                }
            ],
            "name": "Approval",
            "type": "event"
        },
        {
            "anonymous": false,
            "inputs": [
                {
                    "indexed": true,
                    "internalType": "address",
                    "name": "previousOwner",
                    "type": "address"
                },
                {
                    "indexed": true,
                    "internalType": "address",
                    "name": "newOwner",
                    "type": "address"
                }
            ],
            "name": "OwnershipTransferred",
            "type": "event"
        },
        {
            "anonymous": false,
            "inputs": [
                {
                    "indexed": false,
                    "internalType": "address",
                    "name": "account",
                    "type": "address"
                }
            ],
            "name": "Paused",
            "type": "event"
        },
        {
            "anonymous": false,
            "inputs": [
                {
                    "indexed": true,
                    "internalType": "address",
                    "name": "from",
                    "type": "address"
                },
                {
                    "indexed": true,
                    "internalType": "address",
                    "name": "to",
                    "type": "address"
                },
                {
                    "indexed": false,
                    "internalType": "uint256",
                    "name": "value",
                    "type": "uint256"
                }
            ],
            "name": "Transfer",
            "type": "event"
        },
        {
            "anonymous": false,
            "inputs": [
                {
                    "indexed": false,
                    "internalType": "address",
                    "name": "account",
                    "type": "address"
                }
            ],
            "name": "Unpaused",
            "type": "event"
        },
        {
            "inputs": [],
            "name": "PAUSER_ROLE",
            "outputs": [
                {
                    "internalType": "bytes32",
                    "name": "",
                    "type": "bytes32"
                }
            ],
            "stateMutability": "view",
            "type": "function"
        },
        {
            "inputs": [
                {
                    "internalType": "address",
                    "name": "owner",
                    "type": "address"
                },
                {
                    "internalType": "address",
                    "name": "spender",
                    "type": "address"
                }
            ],
            "name": "allowance",
            "outputs": [
                {
                    "internalType": "uint256",
                    "name": "",
                    "type": "uint256"
                }
            ],
            "stateMutability": "view",
            "type": "function"
        },
        {
            "inputs": [
                {
                    "internalType": "address",
                    "name": "spender",
                    "type": "address"
                },
                {
                    "internalType": "uint256",
                    "name": "amount",
                    "type": "uint256"
                }
            ],
            "name": "approve",
            "outputs": [
                {
                    "internalType": "bool",
                    "name": "",
                    "type": "bool"
                }
            ],
            "stateMutability": "nonpayable",
            "type": "function"
        },
        {
            "inputs": [
                {
                    "internalType": "uint256",
                    "name": "",
                    "type": "uint256"
                }
            ],
            "name": "awards",
            "outputs": [
                {
                    "internalType": "string",
                    "name": "awardeeName",
                    "type": "string"
                },
                {
                    "internalType": "address",
                    "name": "awardeeAddr",
                    "type": "address"
                },
                {
                    "internalType": "string",
                    "name": "cageCode",
                    "type": "string"
                },
                {
                    "internalType": "string",
                    "name": "naicsCode",
                    "type": "string"
                },
                {
                    "internalType": "string",
                    "name": "grantNumber",
                    "type": "string"
                },
                {
                    "internalType": "string",
                    "name": "effectiveDate",
                    "type": "string"
                },
                {
                    "internalType": "string",
                    "name": "completionDate",
                    "type": "string"
                },
                {
                    "internalType": "uint256",
                    "name": "laborCLINValue",
                    "type": "uint256"
                },
                {
                    "internalType": "uint256",
                    "name": "travelCLINValue",
                    "type": "uint256"
                },
                {
                    "internalType": "uint256",
                    "name": "odcValue",
                    "type": "uint256"
                },
                {
                    "internalType": "uint256",
                    "name": "totalAwardValue",
                    "type": "uint256"
                },
                {
                    "internalType": "bool",
                    "name": "completed",
                    "type": "bool"
                }
            ],
            "stateMutability": "view",
            "type": "function"
        },
        {
            "inputs": [
                {
                    "internalType": "address",
                    "name": "account",
                    "type": "address"
                }
            ],
            "name": "balanceOf",
            "outputs": [
                {
                    "internalType": "uint256",
                    "name": "",
                    "type": "uint256"
                }
            ],
            "stateMutability": "view",
            "type": "function"
        },
        {
            "inputs": [
                {
                    "internalType": "uint256",
                    "name": "amount",
                    "type": "uint256"
                }
            ],
            "name": "burn",
            "outputs": [],
            "stateMutability": "nonpayable",
            "type": "function"
        },
        {
            "inputs": [
                {
                    "internalType": "address",
                    "name": "account",
                    "type": "address"
                },
                {
                    "internalType": "uint256",
                    "name": "amount",
                    "type": "uint256"
                }
            ],
            "name": "burnFrom",
            "outputs": [],
            "stateMutability": "nonpayable",
            "type": "function"
        },
        {
            "inputs": [
                {
                    "internalType": "string",
                    "name": "_awardeeName",
                    "type": "string"
                },
                {
                    "internalType": "address",
                    "name": "_awardeeAddr",
                    "type": "address"
                },
                {
                    "internalType": "string",
                    "name": "_cageCode",
                    "type": "string"
                },
                {
                    "internalType": "string",
                    "name": "_naicsCode",
                    "type": "string"
                },
                {
                    "internalType": "string",
                    "name": "_grantNumber",
                    "type": "string"
                },
                {
                    "internalType": "string",
                    "name": "_effectiveDate",
                    "type": "string"
                },
                {
                    "internalType": "string",
                    "name": "_completionDate",
                    "type": "string"
                },
                {
                    "internalType": "uint256",
                    "name": "_laborCLINValue",
                    "type": "uint256"
                },
                {
                    "internalType": "uint256",
                    "name": "_travelCLINValue",
                    "type": "uint256"
                },
                {
                    "internalType": "uint256",
                    "name": "_odcValue",
                    "type": "uint256"
                },
                {
                    "internalType": "uint256",
                    "name": "_totalAwardValue",
                    "type": "uint256"
                }
            ],
            "name": "createGrant",
            "outputs": [],
            "stateMutability": "nonpayable",
            "type": "function"
        },
        {
            "inputs": [],
            "name": "decimals",
            "outputs": [
                {
                    "internalType": "uint8",
                    "name": "",
                    "type": "uint8"
                }
            ],
            "stateMutability": "view",
            "type": "function"
        },
        {
            "inputs": [
                {
                    "internalType": "address",
                    "name": "spender",
                    "type": "address"
                },
                {
                    "internalType": "uint256",
                    "name": "subtractedValue",
                    "type": "uint256"
                }
            ],
            "name": "decreaseAllowance",
            "outputs": [
                {
                    "internalType": "bool",
                    "name": "",
                    "type": "bool"
                }
            ],
            "stateMutability": "nonpayable",
            "type": "function"
        },
        {
            "inputs": [],
            "name": "getNumberAwards",
            "outputs": [
                {
                    "internalType": "uint256",
                    "name": "",
                    "type": "uint256"
                }
            ],
            "stateMutability": "view",
            "type": "function"
        },
        {
            "inputs": [
                {
                    "internalType": "address",
                    "name": "spender",
                    "type": "address"
                },
                {
                    "internalType": "uint256",
                    "name": "addedValue",
                    "type": "uint256"
                }
            ],
            "name": "increaseAllowance",
            "outputs": [
                {
                    "internalType": "bool",
                    "name": "",
                    "type": "bool"
                }
            ],
            "stateMutability": "nonpayable",
            "type": "function"
        },
        {
            "inputs": [
                {
                    "internalType": "address",
                    "name": "to",
                    "type": "address"
                },
                {
                    "internalType": "uint256",
                    "name": "amount",
                    "type": "uint256"
                }
            ],
            "name": "mint",
            "outputs": [],
            "stateMutability": "nonpayable",
            "type": "function"
        },
        {
            "inputs": [],
            "name": "name",
            "outputs": [
                {
                    "internalType": "string",
                    "name": "",
                    "type": "string"
                }
            ],
            "stateMutability": "view",
            "type": "function"
        },
        {
            "inputs": [],
            "name": "owner",
            "outputs": [
                {
                    "internalType": "address",
                    "name": "",
                    "type": "address"
                }
            ],
            "stateMutability": "view",
            "type": "function"
        },
        {
            "inputs": [],
            "name": "pause",
            "outputs": [],
            "stateMutability": "nonpayable",
            "type": "function"
        },
        {
            "inputs": [],
            "name": "paused",
            "outputs": [
                {
                    "internalType": "bool",
                    "name": "",
                    "type": "bool"
                }
            ],
            "stateMutability": "view",
            "type": "function"
        },
        {
            "inputs": [],
            "name": "renounceOwnership",
            "outputs": [],
            "stateMutability": "nonpayable",
            "type": "function"
        },
        {
            "inputs": [],
            "name": "symbol",
            "outputs": [
                {
                    "internalType": "string",
                    "name": "",
                    "type": "string"
                }
            ],
            "stateMutability": "view",
            "type": "function"
        },
        {
            "inputs": [],
            "name": "totalSupply",
            "outputs": [
                {
                    "internalType": "uint256",
                    "name": "",
                    "type": "uint256"
                }
            ],
            "stateMutability": "view",
            "type": "function"
        },
        {
            "inputs": [
                {
                    "internalType": "address",
                    "name": "recipient",
                    "type": "address"
                },
                {
                    "internalType": "uint256",
                    "name": "amount",
                    "type": "uint256"
                }
            ],
            "name": "transfer",
            "outputs": [
                {
                    "internalType": "bool",
                    "name": "",
                    "type": "bool"
                }
            ],
            "stateMutability": "nonpayable",
            "type": "function"
        },
        {
            "inputs": [
                {
                    "internalType": "address",
                    "name": "sender",
                    "type": "address"
                },
                {
                    "internalType": "address",
                    "name": "recipient",
                    "type": "address"
                },
                {
                    "internalType": "uint256",
                    "name": "amount",
                    "type": "uint256"
                }
            ],
            "name": "transferFrom",
            "outputs": [
                {
                    "internalType": "bool",
                    "name": "",
                    "type": "bool"
                }
            ],
            "stateMutability": "nonpayable",
            "type": "function"
        },
        {
            "inputs": [
                {
                    "internalType": "address",
                    "name": "newOwner",
                    "type": "address"
                }
            ],
            "name": "transferOwnership",
            "outputs": [],
            "stateMutability": "nonpayable",
            "type": "function"
        },
        {
            "inputs": [],
            "name": "unpause",
            "outputs": [],
            "stateMutability": "nonpayable",
            "type": "function"
        }
    ],
    "bytecode": "60806040523480156200001157600080fd5b50604080518082018252600a8152694e534643546f6b656e7360b01b6020808301918252835180850190945260048452634e53464360e01b9084015281519192916200006091600391620000fc565b50805162000076906004906020840190620000fc565b505050620000936200008d620000a660201b60201c565b620000aa565b6005805460ff60a01b19169055620001df565b3390565b600580546001600160a01b038381166001600160a01b0319831681179093556040519116919082907f8be0079c531659141344cd1fd0a4f28419497f9722a3daafe3b4186f6b6457e090600090a35050565b8280546200010a90620001a2565b90600052602060002090601f0160209004810192826200012e576000855562000179565b82601f106200014957805160ff191683800117855562000179565b8280016001018555821562000179579182015b82811115620001795782518255916020019190600101906200015c565b50620001879291506200018b565b5090565b5b808211156200018757600081556001016200018c565b600181811c90821680620001b757607f821691505b60208210811415620001d957634e487b7160e01b600052602260045260246000fd5b50919050565b611b0180620001ef6000396000f3fe608060405234801561001057600080fd5b50600436106101585760003560e01c806370a08231116100c3578063a457c2d71161007c578063a457c2d7146102b1578063a9059cbb146102c4578063dd62ed3e146102d7578063e63ab1e914610310578063f2fde38b14610337578063fc5a5b631461034a57600080fd5b806370a0823114610242578063715018a61461026b57806379cc6790146102735780638456cb59146102865780638da5cb5b1461028e57806395d89b41146102a957600080fd5b8063313ce56711610115578063313ce567146101e057806339509351146101ef5780633f4ba83a1461020257806340c10f191461020a57806342966c681461021d5780635c975abb1461023057600080fd5b806306fdde031461015d578063095ea7b31461017b57806318160ddd1461019e57806323b872dd146101b0578063250b5dd1146101c35780632766c8cf146101d8575b600080fd5b610165610375565b6040516101729190611565565b60405180910390f35b61018e61018936600461159b565b610407565b6040519015158152602001610172565b6002545b604051908152602001610172565b61018e6101be3660046115c5565b61041e565b6101d66101d13660046116a4565b6104cd565b005b6006546101a2565b60405160128152602001610172565b61018e6101fd36600461159b565b6106c2565b6101d66106fe565b6101d661021836600461159b565b610732565b6101d661022b3660046117d9565b61077f565b600554600160a01b900460ff1661018e565b6101a26102503660046117f2565b6001600160a01b031660009081526020819052604090205490565b6101d661078c565b6101d661028136600461159b565b6107c0565b6101d6610846565b6005546040516001600160a01b039091168152602001610172565b610165610878565b61018e6102bf36600461159b565b610887565b61018e6102d236600461159b565b610920565b6101a26102e536600461180d565b6001600160a01b03918216600090815260016020908152604080832093909416825291909152205490565b6101a27f65d7a28e3265b37a6474929f336521b332c1681b933f6cb9f3376673440d862a81565b6101d66103453660046117f2565b61092d565b61035d6103583660046117d9565b6109c5565b6040516101729c9b9a99989796959493929190611840565b60606003805461038490611904565b80601f01602080910402602001604051908101604052809291908181526020018280546103b090611904565b80156103fd5780601f106103d2576101008083540402835291602001916103fd565b820191906000526020600020905b8154815290600101906020018083116103e057829003601f168201915b5050505050905090565b6000610414338484610d78565b5060015b92915050565b600061042b848484610e9c565b6001600160a01b0384166000908152600160209081526040808320338452909152902054828110156104b55760405162461bcd60e51b815260206004820152602860248201527f45524332303a207472616e7366657220616d6f756e74206578636565647320616044820152676c6c6f77616e636560c01b60648201526084015b60405180910390fd5b6104c28533858403610d78565b506001949350505050565b6005546001600160a01b031633146104f75760405162461bcd60e51b81526004016104ac9061193f565b60408051610180810182528c81526001600160a01b038c166020808301919091529181018b9052606081018a90526080810189905260a0810188905260c0810187905260e0810186905261010081018590526101208101849052610140810183905260006101608201819052600680546001810182559152815180519293600c9092027ff652222313e28459528d920b65115c16c04f3efc82aaedc97be59f3f377c0d3f01926105aa928492019061147f565b506020828101516001830180546001600160a01b0319166001600160a01b03909216919091179055604083015180516105e9926002850192019061147f565b506060820151805161060591600384019160209091019061147f565b506080820151805161062191600484019160209091019061147f565b5060a0820151805161063d91600584019160209091019061147f565b5060c0820151805161065991600684019160209091019061147f565b5060e0820151600782015561010082015160088201556101208201516009820155610140820151600a82015561016090910151600b909101805460ff19169115159190911790556106aa8a82610732565b6106b48a826106c2565b505050505050505050505050565b3360008181526001602090815260408083206001600160a01b038716845290915281205490916104149185906106f990869061198a565b610d78565b6005546001600160a01b031633146107285760405162461bcd60e51b81526004016104ac9061193f565b610730611076565b565b6005546001600160a01b0316331461075c5760405162461bcd60e51b81526004016104ac9061193f565b61077b8261076c6012600a611a86565b6107769084611a95565b611113565b5050565b61078933826111fe565b50565b6005546001600160a01b031633146107b65760405162461bcd60e51b81526004016104ac9061193f565b6107306000611358565b60006107cc83336102e5565b90508181101561082a5760405162461bcd60e51b8152602060048201526024808201527f45524332303a206275726e20616d6f756e74206578636565647320616c6c6f77604482015263616e636560e01b60648201526084016104ac565b6108378333848403610d78565b61084183836111fe565b505050565b6005546001600160a01b031633146108705760405162461bcd60e51b81526004016104ac9061193f565b6107306113aa565b60606004805461038490611904565b3360009081526001602090815260408083206001600160a01b0386168452909152812054828110156109095760405162461bcd60e51b815260206004820152602560248201527f45524332303a2064656372656173656420616c6c6f77616e63652062656c6f77604482015264207a65726f60d81b60648201526084016104ac565b6109163385858403610d78565b5060019392505050565b6000610414338484610e9c565b6005546001600160a01b031633146109575760405162461bcd60e51b81526004016104ac9061193f565b6001600160a01b0381166109bc5760405162461bcd60e51b815260206004820152602660248201527f4f776e61626c653a206e6577206f776e657220697320746865207a65726f206160448201526564647265737360d01b60648201526084016104ac565b61078981611358565b600681815481106109d557600080fd5b90600052602060002090600c02016000915090508060000180546109f890611904565b80601f0160208091040260200160405190810160405280929190818152602001828054610a2490611904565b8015610a715780601f10610a4657610100808354040283529160200191610a71565b820191906000526020600020905b815481529060010190602001808311610a5457829003601f168201915b505050600184015460028501805494956001600160a01b03909216949193509150610a9b90611904565b80601f0160208091040260200160405190810160405280929190818152602001828054610ac790611904565b8015610b145780601f10610ae957610100808354040283529160200191610b14565b820191906000526020600020905b815481529060010190602001808311610af757829003601f168201915b505050505090806003018054610b2990611904565b80601f0160208091040260200160405190810160405280929190818152602001828054610b5590611904565b8015610ba25780601f10610b7757610100808354040283529160200191610ba2565b820191906000526020600020905b815481529060010190602001808311610b8557829003601f168201915b505050505090806004018054610bb790611904565b80601f0160208091040260200160405190810160405280929190818152602001828054610be390611904565b8015610c305780601f10610c0557610100808354040283529160200191610c30565b820191906000526020600020905b815481529060010190602001808311610c1357829003601f168201915b505050505090806005018054610c4590611904565b80601f0160208091040260200160405190810160405280929190818152602001828054610c7190611904565b8015610cbe5780601f10610c9357610100808354040283529160200191610cbe565b820191906000526020600020905b815481529060010190602001808311610ca157829003601f168201915b505050505090806006018054610cd390611904565b80601f0160208091040260200160405190810160405280929190818152602001828054610cff90611904565b8015610d4c5780601f10610d2157610100808354040283529160200191610d4c565b820191906000526020600020905b815481529060010190602001808311610d2f57829003601f168201915b505050600784015460088501546009860154600a870154600b9097015495969295919450925060ff168c565b6001600160a01b038316610dda5760405162461bcd60e51b8152602060048201526024808201527f45524332303a20617070726f76652066726f6d20746865207a65726f206164646044820152637265737360e01b60648201526084016104ac565b6001600160a01b038216610e3b5760405162461bcd60e51b815260206004820152602260248201527f45524332303a20617070726f766520746f20746865207a65726f206164647265604482015261737360f01b60648201526084016104ac565b6001600160a01b0383811660008181526001602090815260408083209487168084529482529182902085905590518481527f8c5be1e5ebec7d5bd14f71427d1e84f3dd0314c0f7b2291e5b200ac8c7c3b925910160405180910390a3505050565b6001600160a01b038316610f005760405162461bcd60e51b815260206004820152602560248201527f45524332303a207472616e736665722066726f6d20746865207a65726f206164604482015264647265737360d81b60648201526084016104ac565b6001600160a01b038216610f625760405162461bcd60e51b815260206004820152602360248201527f45524332303a207472616e7366657220746f20746865207a65726f206164647260448201526265737360e81b60648201526084016104ac565b610f6d838383611432565b6001600160a01b03831660009081526020819052604090205481811015610fe55760405162461bcd60e51b815260206004820152602660248201527f45524332303a207472616e7366657220616d6f756e7420657863656564732062604482015265616c616e636560d01b60648201526084016104ac565b6001600160a01b0380851660009081526020819052604080822085850390559185168152908120805484929061101c90849061198a565b92505081905550826001600160a01b0316846001600160a01b03167fddf252ad1be2c89b69c2b068fc378daa952ba7f163c4a11628f55a4df523b3ef8460405161106891815260200190565b60405180910390a350505050565b600554600160a01b900460ff166110c65760405162461bcd60e51b815260206004820152601460248201527314185d5cd8589b194e881b9bdd081c185d5cd95960621b60448201526064016104ac565b6005805460ff60a01b191690557f5db9ee0a495bf2e6ff9c91a7834c1ba4fdd244a5e8aa4e537bd38aeae4b073aa335b6040516001600160a01b03909116815260200160405180910390a1565b6001600160a01b0382166111695760405162461bcd60e51b815260206004820152601f60248201527f45524332303a206d696e7420746f20746865207a65726f20616464726573730060448201526064016104ac565b61117560008383611432565b8060026000828254611187919061198a565b90915550506001600160a01b038216600090815260208190526040812080548392906111b490849061198a565b90915550506040518181526001600160a01b038316906000907fddf252ad1be2c89b69c2b068fc378daa952ba7f163c4a11628f55a4df523b3ef9060200160405180910390a35050565b6001600160a01b03821661125e5760405162461bcd60e51b815260206004820152602160248201527f45524332303a206275726e2066726f6d20746865207a65726f206164647265736044820152607360f81b60648201526084016104ac565b61126a82600083611432565b6001600160a01b038216600090815260208190526040902054818110156112de5760405162461bcd60e51b815260206004820152602260248201527f45524332303a206275726e20616d6f756e7420657863656564732062616c616e604482015261636560f01b60648201526084016104ac565b6001600160a01b038316600090815260208190526040812083830390556002805484929061130d908490611ab4565b90915550506040518281526000906001600160a01b038516907fddf252ad1be2c89b69c2b068fc378daa952ba7f163c4a11628f55a4df523b3ef9060200160405180910390a3505050565b600580546001600160a01b038381166001600160a01b0319831681179093556040519116919082907f8be0079c531659141344cd1fd0a4f28419497f9722a3daafe3b4186f6b6457e090600090a35050565b600554600160a01b900460ff16156113f75760405162461bcd60e51b815260206004820152601060248201526f14185d5cd8589b194e881c185d5cd95960821b60448201526064016104ac565b6005805460ff60a01b1916600160a01b1790557f62e78cea01bee320cd4e420270b5ea74000d11b0c9f74754ebdbfc544b05a2586110f63390565b600554600160a01b900460ff16156108415760405162461bcd60e51b815260206004820152601060248201526f14185d5cd8589b194e881c185d5cd95960821b60448201526064016104ac565b82805461148b90611904565b90600052602060002090601f0160209004810192826114ad57600085556114f3565b82601f106114c657805160ff19168380011785556114f3565b828001600101855582156114f3579182015b828111156114f35782518255916020019190600101906114d8565b506114ff929150611503565b5090565b5b808211156114ff5760008155600101611504565b6000815180845260005b8181101561153e57602081850181015186830182015201611522565b81811115611550576000602083870101525b50601f01601f19169290920160200192915050565b6020815260006115786020830184611518565b9392505050565b80356001600160a01b038116811461159657600080fd5b919050565b600080604083850312156115ae57600080fd5b6115b78361157f565b946020939093013593505050565b6000806000606084860312156115da57600080fd5b6115e38461157f565b92506115f16020850161157f565b9150604084013590509250925092565b634e487b7160e01b600052604160045260246000fd5b600082601f83011261162857600080fd5b813567ffffffffffffffff8082111561164357611643611601565b604051601f8301601f19908116603f0116810190828211818310171561166b5761166b611601565b8160405283815286602085880101111561168457600080fd5b836020870160208301376000602085830101528094505050505092915050565b60008060008060008060008060008060006101608c8e0312156116c657600080fd5b67ffffffffffffffff808d3511156116dd57600080fd5b6116ea8e8e358f01611617565b9b506116f860208e0161157f565b9a508060408e0135111561170b57600080fd5b61171b8e60408f01358f01611617565b99508060608e0135111561172e57600080fd5b61173e8e60608f01358f01611617565b98508060808e0135111561175157600080fd5b6117618e60808f01358f01611617565b97508060a08e0135111561177457600080fd5b6117848e60a08f01358f01611617565b96508060c08e0135111561179757600080fd5b506117a88d60c08e01358e01611617565b945060e08c013593506101008c013592506101208c013591506101408c013590509295989b509295989b9093969950565b6000602082840312156117eb57600080fd5b5035919050565b60006020828403121561180457600080fd5b6115788261157f565b6000806040838503121561182057600080fd5b6118298361157f565b91506118376020840161157f565b90509250929050565b6101808152600061185561018083018f611518565b6001600160a01b038e1660208401528281036040840152611876818e611518565b9050828103606084015261188a818d611518565b9050828103608084015261189e818c611518565b905082810360a08401526118b2818b611518565b905082810360c08401526118c6818a611518565b9150508660e08301528561010083015284610120830152836101408301526118f361016083018415159052565b9d9c50505050505050505050505050565b600181811c9082168061191857607f821691505b6020821081141561193957634e487b7160e01b600052602260045260246000fd5b50919050565b6020808252818101527f4f776e61626c653a2063616c6c6572206973206e6f7420746865206f776e6572604082015260600190565b634e487b7160e01b600052601160045260246000fd5b6000821982111561199d5761199d611974565b500190565b600181815b808511156119dd5781600019048211156119c3576119c3611974565b808516156119d057918102915b93841c93908002906119a7565b509250929050565b6000826119f457506001610418565b81611a0157506000610418565b8160018114611a175760028114611a2157611a3d565b6001915050610418565b60ff841115611a3257611a32611974565b50506001821b610418565b5060208310610133831016604e8410600b8410161715611a60575081810a610418565b611a6a83836119a2565b8060001904821115611a7e57611a7e611974565b029392505050565b600061157860ff8416836119e5565b6000816000190483118215151615611aaf57611aaf611974565b500290565b600082821015611ac657611ac6611974565b50039056fea26469706673582212206f45f9b337af4824c5332372b905e83e92a198adac49f60c288519caf5b7524164736f6c634300080a0033",
    "sourcePath": "/Users/christopherstone/DevProjects/GrantMgmt/blockchain-developer-bootcamp-final-project/GrantMgmt/contracts/GrantManager.sol",
    "compiler": {
        "name": "solc",
        "version": "0.8.10+commit.fc410830"
    },
    "functionHashes": {
        "PAUSER_ROLE()": "e63ab1e9",
        "allowance(address,address)": "dd62ed3e",
        "approve(address,uint256)": "095ea7b3",
        "awards(uint256)": "fc5a5b63",
        "balanceOf(address)": "70a08231",
        "burn(uint256)": "42966c68",
        "burnFrom(address,uint256)": "79cc6790",
        "createGrant(string,address,string,string,string,string,string,uint256,uint256,uint256,uint256)": "250b5dd1",
        "decimals()": "313ce567",
        "decreaseAllowance(address,uint256)": "a457c2d7",
        "getNumberAwards()": "2766c8cf",
        "increaseAllowance(address,uint256)": "39509351",
        "mint(address,uint256)": "40c10f19",
        "name()": "06fdde03",
        "owner()": "8da5cb5b",
        "pause()": "8456cb59",
        "paused()": "5c975abb",
        "renounceOwnership()": "715018a6",
        "symbol()": "95d89b41",
        "totalSupply()": "18160ddd",
        "transfer(address,uint256)": "a9059cbb",
        "transferFrom(address,address,uint256)": "23b872dd",
        "transferOwnership(address)": "f2fde38b",
        "unpause()": "3f4ba83a"
    },
    "gasEstimates": {
        "creation": {
            "codeDepositCost": "1382600",
            "executionCost": "infinite",
            "totalCost": "infinite"
        },
        "external": {
            "PAUSER_ROLE()": "283",
            "allowance(address,address)": "infinite",
            "approve(address,uint256)": "24643",
            "awards(uint256)": "infinite",
            "balanceOf(address)": "2563",
            "burn(uint256)": "53142",
            "burnFrom(address,uint256)": "infinite",
            "createGrant(string,address,string,string,string,string,string,uint256,uint256,uint256,uint256)": "infinite",
            "decimals()": "200",
            "decreaseAllowance(address,uint256)": "26910",
            "getNumberAwards()": "2426",
            "increaseAllowance(address,uint256)": "26980",
            "mint(address,uint256)": "infinite",
            "name()": "infinite",
            "owner()": "2412",
            "pause()": "29868",
            "paused()": "2454",
            "renounceOwnership()": "28162",
            "symbol()": "infinite",
            "totalSupply()": "2349",
            "transfer(address,uint256)": "53392",
            "transferFrom(address,address,uint256)": "infinite",
            "transferOwnership(address)": "28422",
            "unpause()": "29817"
        },
        "internal": {
            "_beforeTokenTransfer(address,address,uint256)": "infinite"
        }
    }
}