{
    "contractName": "GrantManager",
    "abi": [
        {
            "inputs": [],
            "stateMutability": "nonpayable",
            "type": "constructor"
        },
        {
            "anonymous": false,
            "inputs": [
                {
                    "indexed": true,
                    "internalType": "address",
                    "name": "owner",
                    "type": "address"
                },
                {
                    "indexed": true,
                    "internalType": "address",
                    "name": "spender",
                    "type": "address"
                },
                {
                    "indexed": false,
                    "internalType": "uint256",
                    "name": "value",
                    "type": "uint256"
                }
            ],
            "name": "Approval",
            "type": "event"
        },
        {
            "anonymous": false,
            "inputs": [
                {
                    "indexed": true,
                    "internalType": "address",
                    "name": "previousOwner",
                    "type": "address"
                },
                {
                    "indexed": true,
                    "internalType": "address",
                    "name": "newOwner",
                    "type": "address"
                }
            ],
            "name": "OwnershipTransferred",
            "type": "event"
        },
        {
            "anonymous": false,
            "inputs": [
                {
                    "indexed": false,
                    "internalType": "address",
                    "name": "account",
                    "type": "address"
                }
            ],
            "name": "Paused",
            "type": "event"
        },
        {
            "anonymous": false,
            "inputs": [
                {
                    "indexed": true,
                    "internalType": "address",
                    "name": "from",
                    "type": "address"
                },
                {
                    "indexed": true,
                    "internalType": "address",
                    "name": "to",
                    "type": "address"
                },
                {
                    "indexed": false,
                    "internalType": "uint256",
                    "name": "value",
                    "type": "uint256"
                }
            ],
            "name": "Transfer",
            "type": "event"
        },
        {
            "anonymous": false,
            "inputs": [
                {
                    "indexed": false,
                    "internalType": "address",
                    "name": "account",
                    "type": "address"
                }
            ],
            "name": "Unpaused",
            "type": "event"
        },
        {
            "inputs": [],
            "name": "PAUSER_ROLE",
            "outputs": [
                {
                    "internalType": "bytes32",
                    "name": "",
                    "type": "bytes32"
                }
            ],
            "stateMutability": "view",
            "type": "function"
        },
        {
            "inputs": [
                {
                    "internalType": "address",
                    "name": "owner",
                    "type": "address"
                },
                {
                    "internalType": "address",
                    "name": "spender",
                    "type": "address"
                }
            ],
            "name": "allowance",
            "outputs": [
                {
                    "internalType": "uint256",
                    "name": "",
                    "type": "uint256"
                }
            ],
            "stateMutability": "view",
            "type": "function"
        },
        {
            "inputs": [
                {
                    "internalType": "address",
                    "name": "spender",
                    "type": "address"
                },
                {
                    "internalType": "uint256",
                    "name": "amount",
                    "type": "uint256"
                }
            ],
            "name": "approve",
            "outputs": [
                {
                    "internalType": "bool",
                    "name": "",
                    "type": "bool"
                }
            ],
            "stateMutability": "nonpayable",
            "type": "function"
        },
        {
            "inputs": [
                {
                    "internalType": "uint256",
                    "name": "",
                    "type": "uint256"
                }
            ],
            "name": "awards",
            "outputs": [
                {
                    "internalType": "string",
                    "name": "awardeeName",
                    "type": "string"
                },
                {
                    "internalType": "address",
                    "name": "awardeeAddr",
                    "type": "address"
                },
                {
                    "internalType": "string",
                    "name": "cageCode",
                    "type": "string"
                },
                {
                    "internalType": "string",
                    "name": "naicsCode",
                    "type": "string"
                },
                {
                    "internalType": "string",
                    "name": "grantNumber",
                    "type": "string"
                },
                {
                    "internalType": "string",
                    "name": "effectiveDate",
                    "type": "string"
                },
                {
                    "internalType": "string",
                    "name": "completionDate",
                    "type": "string"
                },
                {
                    "internalType": "uint256",
                    "name": "laborCLINValue",
                    "type": "uint256"
                },
                {
                    "internalType": "uint256",
                    "name": "travelCLINValue",
                    "type": "uint256"
                },
                {
                    "internalType": "uint256",
                    "name": "odcValue",
                    "type": "uint256"
                },
                {
                    "internalType": "uint256",
                    "name": "totalAwardValue",
                    "type": "uint256"
                },
                {
                    "internalType": "bool",
                    "name": "completed",
                    "type": "bool"
                }
            ],
            "stateMutability": "view",
            "type": "function"
        },
        {
            "inputs": [
                {
                    "internalType": "address",
                    "name": "account",
                    "type": "address"
                }
            ],
            "name": "balanceOf",
            "outputs": [
                {
                    "internalType": "uint256",
                    "name": "",
                    "type": "uint256"
                }
            ],
            "stateMutability": "view",
            "type": "function"
        },
        {
            "inputs": [
                {
                    "internalType": "uint256",
                    "name": "amount",
                    "type": "uint256"
                }
            ],
            "name": "burn",
            "outputs": [],
            "stateMutability": "nonpayable",
            "type": "function"
        },
        {
            "inputs": [
                {
                    "internalType": "address",
                    "name": "account",
                    "type": "address"
                },
                {
                    "internalType": "uint256",
                    "name": "amount",
                    "type": "uint256"
                }
            ],
            "name": "burnFrom",
            "outputs": [],
            "stateMutability": "nonpayable",
            "type": "function"
        },
        {
            "inputs": [
                {
                    "internalType": "string",
                    "name": "_awardeeName",
                    "type": "string"
                },
                {
                    "internalType": "address",
                    "name": "_awardeeAddr",
                    "type": "address"
                },
                {
                    "internalType": "string",
                    "name": "_cageCode",
                    "type": "string"
                },
                {
                    "internalType": "string",
                    "name": "_naicsCode",
                    "type": "string"
                },
                {
                    "internalType": "string",
                    "name": "_grantNumber",
                    "type": "string"
                },
                {
                    "internalType": "string",
                    "name": "_effectiveDate",
                    "type": "string"
                },
                {
                    "internalType": "string",
                    "name": "_completionDate",
                    "type": "string"
                },
                {
                    "internalType": "uint256",
                    "name": "_laborCLINValue",
                    "type": "uint256"
                },
                {
                    "internalType": "uint256",
                    "name": "_travelCLINValue",
                    "type": "uint256"
                },
                {
                    "internalType": "uint256",
                    "name": "_odcValue",
                    "type": "uint256"
                },
                {
                    "internalType": "uint256",
                    "name": "_totalAwardValue",
                    "type": "uint256"
                }
            ],
            "name": "createGrant",
            "outputs": [],
            "stateMutability": "nonpayable",
            "type": "function"
        },
        {
            "inputs": [],
            "name": "decimals",
            "outputs": [
                {
                    "internalType": "uint8",
                    "name": "",
                    "type": "uint8"
                }
            ],
            "stateMutability": "view",
            "type": "function"
        },
        {
            "inputs": [
                {
                    "internalType": "address",
                    "name": "spender",
                    "type": "address"
                },
                {
                    "internalType": "uint256",
                    "name": "subtractedValue",
                    "type": "uint256"
                }
            ],
            "name": "decreaseAllowance",
            "outputs": [
                {
                    "internalType": "bool",
                    "name": "",
                    "type": "bool"
                }
            ],
            "stateMutability": "nonpayable",
            "type": "function"
        },
        {
            "inputs": [
                {
                    "internalType": "address",
                    "name": "spender",
                    "type": "address"
                },
                {
                    "internalType": "uint256",
                    "name": "addedValue",
                    "type": "uint256"
                }
            ],
            "name": "increaseAllowance",
            "outputs": [
                {
                    "internalType": "bool",
                    "name": "",
                    "type": "bool"
                }
            ],
            "stateMutability": "nonpayable",
            "type": "function"
        },
        {
            "inputs": [
                {
                    "internalType": "address",
                    "name": "to",
                    "type": "address"
                },
                {
                    "internalType": "uint256",
                    "name": "amount",
                    "type": "uint256"
                }
            ],
            "name": "mint",
            "outputs": [],
            "stateMutability": "nonpayable",
            "type": "function"
        },
        {
            "inputs": [],
            "name": "name",
            "outputs": [
                {
                    "internalType": "string",
                    "name": "",
                    "type": "string"
                }
            ],
            "stateMutability": "view",
            "type": "function"
        },
        {
            "inputs": [],
            "name": "owner",
            "outputs": [
                {
                    "internalType": "address",
                    "name": "",
                    "type": "address"
                }
            ],
            "stateMutability": "view",
            "type": "function"
        },
        {
            "inputs": [],
            "name": "pause",
            "outputs": [],
            "stateMutability": "nonpayable",
            "type": "function"
        },
        {
            "inputs": [],
            "name": "paused",
            "outputs": [
                {
                    "internalType": "bool",
                    "name": "",
                    "type": "bool"
                }
            ],
            "stateMutability": "view",
            "type": "function"
        },
        {
            "inputs": [],
            "name": "renounceOwnership",
            "outputs": [],
            "stateMutability": "nonpayable",
            "type": "function"
        },
        {
            "inputs": [],
            "name": "symbol",
            "outputs": [
                {
                    "internalType": "string",
                    "name": "",
                    "type": "string"
                }
            ],
            "stateMutability": "view",
            "type": "function"
        },
        {
            "inputs": [],
            "name": "totalSupply",
            "outputs": [
                {
                    "internalType": "uint256",
                    "name": "",
                    "type": "uint256"
                }
            ],
            "stateMutability": "view",
            "type": "function"
        },
        {
            "inputs": [
                {
                    "internalType": "address",
                    "name": "recipient",
                    "type": "address"
                },
                {
                    "internalType": "uint256",
                    "name": "amount",
                    "type": "uint256"
                }
            ],
            "name": "transfer",
            "outputs": [
                {
                    "internalType": "bool",
                    "name": "",
                    "type": "bool"
                }
            ],
            "stateMutability": "nonpayable",
            "type": "function"
        },
        {
            "inputs": [
                {
                    "internalType": "address",
                    "name": "sender",
                    "type": "address"
                },
                {
                    "internalType": "address",
                    "name": "recipient",
                    "type": "address"
                },
                {
                    "internalType": "uint256",
                    "name": "amount",
                    "type": "uint256"
                }
            ],
            "name": "transferFrom",
            "outputs": [
                {
                    "internalType": "bool",
                    "name": "",
                    "type": "bool"
                }
            ],
            "stateMutability": "nonpayable",
            "type": "function"
        },
        {
            "inputs": [
                {
                    "internalType": "address",
                    "name": "newOwner",
                    "type": "address"
                }
            ],
            "name": "transferOwnership",
            "outputs": [],
            "stateMutability": "nonpayable",
            "type": "function"
        },
        {
            "inputs": [],
            "name": "unpause",
            "outputs": [],
            "stateMutability": "nonpayable",
            "type": "function"
        }
    ],
    "bytecode": "60806040523480156200001157600080fd5b50604080518082018252600a8152694e534658546f6b656e7360b01b60208083019182528351808501909452600484526309ca68cb60e31b9084015281519192916200006091600391620000fc565b50805162000076906004906020840190620000fc565b505050620000936200008d620000a660201b60201c565b620000aa565b6005805460ff60a01b19169055620001df565b3390565b600580546001600160a01b038381166001600160a01b0319831681179093556040519116919082907f8be0079c531659141344cd1fd0a4f28419497f9722a3daafe3b4186f6b6457e090600090a35050565b8280546200010a90620001a2565b90600052602060002090601f0160209004810192826200012e576000855562000179565b82601f106200014957805160ff191683800117855562000179565b8280016001018555821562000179579182015b82811115620001795782518255916020019190600101906200015c565b50620001879291506200018b565b5090565b5b808211156200018757600081556001016200018c565b600181811c90821680620001b757607f821691505b60208210811415620001d957634e487b7160e01b600052602260045260246000fd5b50919050565b61198780620001ef6000396000f3fe608060405234801561001057600080fd5b506004361061014d5760003560e01c806370a08231116100c3578063a457c2d71161007c578063a457c2d71461029e578063a9059cbb146102b1578063dd62ed3e146102c4578063e63ab1e9146102fd578063f2fde38b14610324578063fc5a5b631461033757600080fd5b806370a082311461022f578063715018a61461025857806379cc6790146102605780638456cb59146102735780638da5cb5b1461027b57806395d89b411461029657600080fd5b8063313ce56711610115578063313ce567146101cd57806339509351146101dc5780633f4ba83a146101ef57806340c10f19146101f757806342966c681461020a5780635c975abb1461021d57600080fd5b806306fdde0314610152578063095ea7b31461017057806318160ddd1461019357806323b872dd146101a5578063250b5dd1146101b8575b600080fd5b61015a610362565b60405161016791906114fd565b60405180910390f35b61018361017e366004611533565b6103f4565b6040519015158152602001610167565b6002545b604051908152602001610167565b6101836101b336600461155d565b61040a565b6101cb6101c636600461163c565b6104b9565b005b60405160128152602001610167565b6101836101ea366004611533565b61066f565b6101cb6106ab565b6101cb610205366004611533565b6106df565b6101cb610218366004611771565b610717565b600554600160a01b900460ff16610183565b61019761023d36600461178a565b6001600160a01b031660009081526020819052604090205490565b6101cb610724565b6101cb61026e366004611533565b610758565b6101cb6107de565b6005546040516001600160a01b039091168152602001610167565b61015a610810565b6101836102ac366004611533565b61081f565b6101836102bf366004611533565b6108b8565b6101976102d23660046117a5565b6001600160a01b03918216600090815260016020908152604080832093909416825291909152205490565b6101977f65d7a28e3265b37a6474929f336521b332c1681b933f6cb9f3376673440d862a81565b6101cb61033236600461178a565b6108c5565b61034a610345366004611771565b61095d565b6040516101679c9b9a999897969594939291906117d8565b6060600380546103719061189c565b80601f016020809104026020016040519081016040528092919081815260200182805461039d9061189c565b80156103ea5780601f106103bf576101008083540402835291602001916103ea565b820191906000526020600020905b8154815290600101906020018083116103cd57829003601f168201915b5050505050905090565b6000610401338484610d10565b50600192915050565b6000610417848484610e34565b6001600160a01b0384166000908152600160209081526040808320338452909152902054828110156104a15760405162461bcd60e51b815260206004820152602860248201527f45524332303a207472616e7366657220616d6f756e74206578636565647320616044820152676c6c6f77616e636560c01b60648201526084015b60405180910390fd5b6104ae8533858403610d10565b506001949350505050565b60408051610180810182528c81526001600160a01b038c166020808301919091529181018b9052606081018a90526080810189905260a0810188905260c0810187905260e0810186905261010081018590526101208101849052610140810183905260006101608201819052600680546001810182559152815180519293600c9092027ff652222313e28459528d920b65115c16c04f3efc82aaedc97be59f3f377c0d3f019261056c9284920190611417565b506020828101516001830180546001600160a01b0319166001600160a01b03909216919091179055604083015180516105ab9260028501920190611417565b50606082015180516105c7916003840191602090910190611417565b50608082015180516105e3916004840191602090910190611417565b5060a082015180516105ff916005840191602090910190611417565b5060c0820151805161061b916006840191602090910190611417565b5060e0820151600782015561010082015160088201556101208201516009820155610140820151600a82015561016090910151600b909101805460ff19169115159190911790555050505050505050505050565b3360008181526001602090815260408083206001600160a01b038716845290915281205490916104019185906106a69086906118ed565b610d10565b6005546001600160a01b031633146106d55760405162461bcd60e51b815260040161049890611905565b6106dd61100e565b565b6005546001600160a01b031633146107095760405162461bcd60e51b815260040161049890611905565b61071382826110ab565b5050565b6107213382611196565b50565b6005546001600160a01b0316331461074e5760405162461bcd60e51b815260040161049890611905565b6106dd60006112f0565b600061076483336102d2565b9050818110156107c25760405162461bcd60e51b8152602060048201526024808201527f45524332303a206275726e20616d6f756e74206578636565647320616c6c6f77604482015263616e636560e01b6064820152608401610498565b6107cf8333848403610d10565b6107d98383611196565b505050565b6005546001600160a01b031633146108085760405162461bcd60e51b815260040161049890611905565b6106dd611342565b6060600480546103719061189c565b3360009081526001602090815260408083206001600160a01b0386168452909152812054828110156108a15760405162461bcd60e51b815260206004820152602560248201527f45524332303a2064656372656173656420616c6c6f77616e63652062656c6f77604482015264207a65726f60d81b6064820152608401610498565b6108ae3385858403610d10565b5060019392505050565b6000610401338484610e34565b6005546001600160a01b031633146108ef5760405162461bcd60e51b815260040161049890611905565b6001600160a01b0381166109545760405162461bcd60e51b815260206004820152602660248201527f4f776e61626c653a206e6577206f776e657220697320746865207a65726f206160448201526564647265737360d01b6064820152608401610498565b610721816112f0565b6006818154811061096d57600080fd5b90600052602060002090600c02016000915090508060000180546109909061189c565b80601f01602080910402602001604051908101604052809291908181526020018280546109bc9061189c565b8015610a095780601f106109de57610100808354040283529160200191610a09565b820191906000526020600020905b8154815290600101906020018083116109ec57829003601f168201915b505050600184015460028501805494956001600160a01b03909216949193509150610a339061189c565b80601f0160208091040260200160405190810160405280929190818152602001828054610a5f9061189c565b8015610aac5780601f10610a8157610100808354040283529160200191610aac565b820191906000526020600020905b815481529060010190602001808311610a8f57829003601f168201915b505050505090806003018054610ac19061189c565b80601f0160208091040260200160405190810160405280929190818152602001828054610aed9061189c565b8015610b3a5780601f10610b0f57610100808354040283529160200191610b3a565b820191906000526020600020905b815481529060010190602001808311610b1d57829003601f168201915b505050505090806004018054610b4f9061189c565b80601f0160208091040260200160405190810160405280929190818152602001828054610b7b9061189c565b8015610bc85780601f10610b9d57610100808354040283529160200191610bc8565b820191906000526020600020905b815481529060010190602001808311610bab57829003601f168201915b505050505090806005018054610bdd9061189c565b80601f0160208091040260200160405190810160405280929190818152602001828054610c099061189c565b8015610c565780601f10610c2b57610100808354040283529160200191610c56565b820191906000526020600020905b815481529060010190602001808311610c3957829003601f168201915b505050505090806006018054610c6b9061189c565b80601f0160208091040260200160405190810160405280929190818152602001828054610c979061189c565b8015610ce45780601f10610cb957610100808354040283529160200191610ce4565b820191906000526020600020905b815481529060010190602001808311610cc757829003601f168201915b505050600784015460088501546009860154600a870154600b9097015495969295919450925060ff168c565b6001600160a01b038316610d725760405162461bcd60e51b8152602060048201526024808201527f45524332303a20617070726f76652066726f6d20746865207a65726f206164646044820152637265737360e01b6064820152608401610498565b6001600160a01b038216610dd35760405162461bcd60e51b815260206004820152602260248201527f45524332303a20617070726f766520746f20746865207a65726f206164647265604482015261737360f01b6064820152608401610498565b6001600160a01b0383811660008181526001602090815260408083209487168084529482529182902085905590518481527f8c5be1e5ebec7d5bd14f71427d1e84f3dd0314c0f7b2291e5b200ac8c7c3b925910160405180910390a3505050565b6001600160a01b038316610e985760405162461bcd60e51b815260206004820152602560248201527f45524332303a207472616e736665722066726f6d20746865207a65726f206164604482015264647265737360d81b6064820152608401610498565b6001600160a01b038216610efa5760405162461bcd60e51b815260206004820152602360248201527f45524332303a207472616e7366657220746f20746865207a65726f206164647260448201526265737360e81b6064820152608401610498565b610f058383836113ca565b6001600160a01b03831660009081526020819052604090205481811015610f7d5760405162461bcd60e51b815260206004820152602660248201527f45524332303a207472616e7366657220616d6f756e7420657863656564732062604482015265616c616e636560d01b6064820152608401610498565b6001600160a01b03808516600090815260208190526040808220858503905591851681529081208054849290610fb49084906118ed565b92505081905550826001600160a01b0316846001600160a01b03167fddf252ad1be2c89b69c2b068fc378daa952ba7f163c4a11628f55a4df523b3ef8460405161100091815260200190565b60405180910390a350505050565b600554600160a01b900460ff1661105e5760405162461bcd60e51b815260206004820152601460248201527314185d5cd8589b194e881b9bdd081c185d5cd95960621b6044820152606401610498565b6005805460ff60a01b191690557f5db9ee0a495bf2e6ff9c91a7834c1ba4fdd244a5e8aa4e537bd38aeae4b073aa335b6040516001600160a01b03909116815260200160405180910390a1565b6001600160a01b0382166111015760405162461bcd60e51b815260206004820152601f60248201527f45524332303a206d696e7420746f20746865207a65726f2061646472657373006044820152606401610498565b61110d600083836113ca565b806002600082825461111f91906118ed565b90915550506001600160a01b0382166000908152602081905260408120805483929061114c9084906118ed565b90915550506040518181526001600160a01b038316906000907fddf252ad1be2c89b69c2b068fc378daa952ba7f163c4a11628f55a4df523b3ef9060200160405180910390a35050565b6001600160a01b0382166111f65760405162461bcd60e51b815260206004820152602160248201527f45524332303a206275726e2066726f6d20746865207a65726f206164647265736044820152607360f81b6064820152608401610498565b611202826000836113ca565b6001600160a01b038216600090815260208190526040902054818110156112765760405162461bcd60e51b815260206004820152602260248201527f45524332303a206275726e20616d6f756e7420657863656564732062616c616e604482015261636560f01b6064820152608401610498565b6001600160a01b03831660009081526020819052604081208383039055600280548492906112a590849061193a565b90915550506040518281526000906001600160a01b038516907fddf252ad1be2c89b69c2b068fc378daa952ba7f163c4a11628f55a4df523b3ef9060200160405180910390a3505050565b600580546001600160a01b038381166001600160a01b0319831681179093556040519116919082907f8be0079c531659141344cd1fd0a4f28419497f9722a3daafe3b4186f6b6457e090600090a35050565b600554600160a01b900460ff161561138f5760405162461bcd60e51b815260206004820152601060248201526f14185d5cd8589b194e881c185d5cd95960821b6044820152606401610498565b6005805460ff60a01b1916600160a01b1790557f62e78cea01bee320cd4e420270b5ea74000d11b0c9f74754ebdbfc544b05a25861108e3390565b600554600160a01b900460ff16156107d95760405162461bcd60e51b815260206004820152601060248201526f14185d5cd8589b194e881c185d5cd95960821b6044820152606401610498565b8280546114239061189c565b90600052602060002090601f016020900481019282611445576000855561148b565b82601f1061145e57805160ff191683800117855561148b565b8280016001018555821561148b579182015b8281111561148b578251825591602001919060010190611470565b5061149792915061149b565b5090565b5b80821115611497576000815560010161149c565b6000815180845260005b818110156114d6576020818501810151868301820152016114ba565b818111156114e8576000602083870101525b50601f01601f19169290920160200192915050565b60208152600061151060208301846114b0565b9392505050565b80356001600160a01b038116811461152e57600080fd5b919050565b6000806040838503121561154657600080fd5b61154f83611517565b946020939093013593505050565b60008060006060848603121561157257600080fd5b61157b84611517565b925061158960208501611517565b9150604084013590509250925092565b634e487b7160e01b600052604160045260246000fd5b600082601f8301126115c057600080fd5b813567ffffffffffffffff808211156115db576115db611599565b604051601f8301601f19908116603f0116810190828211818310171561160357611603611599565b8160405283815286602085880101111561161c57600080fd5b836020870160208301376000602085830101528094505050505092915050565b60008060008060008060008060008060006101608c8e03121561165e57600080fd5b67ffffffffffffffff808d35111561167557600080fd5b6116828e8e358f016115af565b9b5061169060208e01611517565b9a508060408e013511156116a357600080fd5b6116b38e60408f01358f016115af565b99508060608e013511156116c657600080fd5b6116d68e60608f01358f016115af565b98508060808e013511156116e957600080fd5b6116f98e60808f01358f016115af565b97508060a08e0135111561170c57600080fd5b61171c8e60a08f01358f016115af565b96508060c08e0135111561172f57600080fd5b506117408d60c08e01358e016115af565b945060e08c013593506101008c013592506101208c013591506101408c013590509295989b509295989b9093969950565b60006020828403121561178357600080fd5b5035919050565b60006020828403121561179c57600080fd5b61151082611517565b600080604083850312156117b857600080fd5b6117c183611517565b91506117cf60208401611517565b90509250929050565b610180815260006117ed61018083018f6114b0565b6001600160a01b038e166020840152828103604084015261180e818e6114b0565b90508281036060840152611822818d6114b0565b90508281036080840152611836818c6114b0565b905082810360a084015261184a818b6114b0565b905082810360c084015261185e818a6114b0565b9150508660e083015285610100830152846101208301528361014083015261188b61016083018415159052565b9d9c50505050505050505050505050565b600181811c908216806118b057607f821691505b602082108114156118d157634e487b7160e01b600052602260045260246000fd5b50919050565b634e487b7160e01b600052601160045260246000fd5b60008219821115611900576119006118d7565b500190565b6020808252818101527f4f776e61626c653a2063616c6c6572206973206e6f7420746865206f776e6572604082015260600190565b60008282101561194c5761194c6118d7565b50039056fea26469706673582212201162282779873f1264cbc59ca906a5f9bfd91c4b2a09eea77c44053a45b4755064736f6c63430008090033",
    "sourcePath": "/Users/christopherstone/Documents/GitHub/blockchain-developer-bootcamp-final-project/GrantMgmt/contracts/GovConMgmt.sol",
    "compiler": {
        "name": "solc",
        "version": "0.8.9+commit.e5eed63a"
    },
    "functionHashes": {
        "PAUSER_ROLE()": "e63ab1e9",
        "allowance(address,address)": "dd62ed3e",
        "approve(address,uint256)": "095ea7b3",
        "awards(uint256)": "fc5a5b63",
        "balanceOf(address)": "70a08231",
        "burn(uint256)": "42966c68",
        "burnFrom(address,uint256)": "79cc6790",
        "createGrant(string,address,string,string,string,string,string,uint256,uint256,uint256,uint256)": "250b5dd1",
        "decimals()": "313ce567",
        "decreaseAllowance(address,uint256)": "a457c2d7",
        "increaseAllowance(address,uint256)": "39509351",
        "mint(address,uint256)": "40c10f19",
        "name()": "06fdde03",
        "owner()": "8da5cb5b",
        "pause()": "8456cb59",
        "paused()": "5c975abb",
        "renounceOwnership()": "715018a6",
        "symbol()": "95d89b41",
        "totalSupply()": "18160ddd",
        "transfer(address,uint256)": "a9059cbb",
        "transferFrom(address,address,uint256)": "23b872dd",
        "transferOwnership(address)": "f2fde38b",
        "unpause()": "3f4ba83a"
    },
    "gasEstimates": {
        "creation": {
            "codeDepositCost": "1307000",
            "executionCost": "infinite",
            "totalCost": "infinite"
        },
        "external": {
            "PAUSER_ROLE()": "283",
            "allowance(address,address)": "infinite",
            "approve(address,uint256)": "24642",
            "awards(uint256)": "infinite",
            "balanceOf(address)": "2563",
            "burn(uint256)": "53142",
            "burnFrom(address,uint256)": "infinite",
            "createGrant(string,address,string,string,string,string,string,uint256,uint256,uint256,uint256)": "infinite",
            "decimals()": "200",
            "decreaseAllowance(address,uint256)": "26910",
            "increaseAllowance(address,uint256)": "26979",
            "mint(address,uint256)": "infinite",
            "name()": "infinite",
            "owner()": "2412",
            "pause()": "29868",
            "paused()": "2454",
            "renounceOwnership()": "28162",
            "symbol()": "infinite",
            "totalSupply()": "2349",
            "transfer(address,uint256)": "53391",
            "transferFrom(address,address,uint256)": "infinite",
            "transferOwnership(address)": "28422",
            "unpause()": "29817"
        },
        "internal": {
            "_beforeTokenTransfer(address,address,uint256)": "infinite"
        }
    }
}