{
    "contractName": "NSFTreasury",
    "abi": [
        {
            "inputs": [],
            "name": "get",
            "outputs": [
                {
                    "internalType": "uint256",
                    "name": "",
                    "type": "uint256"
                }
            ],
            "stateMutability": "view",
            "type": "function"
        },
        {
            "inputs": [],
            "name": "num",
            "outputs": [
                {
                    "internalType": "uint256",
                    "name": "",
                    "type": "uint256"
                }
            ],
            "stateMutability": "view",
            "type": "function"
        },
        {
            "inputs": [
                {
                    "internalType": "uint256",
                    "name": "_num",
                    "type": "uint256"
                }
            ],
            "name": "set",
            "outputs": [],
            "stateMutability": "nonpayable",
            "type": "function"
        }
    ],
    "bytecode": "608060405234801561001057600080fd5b5060c28061001f6000396000f3fe6080604052348015600f57600080fd5b5060043610603c5760003560e01c80634e70b1dc14604157806360fe47b114605b5780636d4ce63c14606d575b600080fd5b604960005481565b60405190815260200160405180910390f35b606b60663660046074565b600055565b005b6000546049565b600060208284031215608557600080fd5b503591905056fea2646970667358221220602f2d2417553324b7a875b335114a6c4ce09cf5a07413a0bf21c857db31a92b64736f6c63430008070033",
    "sourcePath": "/Users/christopherstone/Documents/GitHub/blockchain-developer-bootcamp-final-project/GrantMgmt/contracts/NSFTreasury.sol",
    "compiler": {
        "name": "solc",
        "version": "0.8.7+commit.e28d00a7"
    },
    "functionHashes": {
        "get()": "6d4ce63c",
        "num()": "4e70b1dc",
        "set(uint256)": "60fe47b1"
    },
    "gasEstimates": {
        "creation": {
            "codeDepositCost": "38800",
            "executionCost": "93",
            "totalCost": "38893"
        },
        "external": {
            "get()": "2302",
            "num()": "2261",
            "set(uint256)": "22312"
        }
    }
}