{
    "contractName": "NSFToken001",
    "abi": [
        {
            "inputs": [],
            "stateMutability": "nonpayable",
            "type": "constructor"
        },
        {
            "anonymous": false,
            "inputs": [
                {
                    "indexed": true,
                    "internalType": "address",
                    "name": "owner",
                    "type": "address"
                },
                {
                    "indexed": true,
                    "internalType": "address",
                    "name": "spender",
                    "type": "address"
                },
                {
                    "indexed": false,
                    "internalType": "uint256",
                    "name": "value",
                    "type": "uint256"
                }
            ],
            "name": "Approval",
            "type": "event"
        },
        {
            "anonymous": false,
            "inputs": [
                {
                    "indexed": false,
                    "internalType": "address",
                    "name": "account",
                    "type": "address"
                }
            ],
            "name": "Paused",
            "type": "event"
        },
        {
            "anonymous": false,
            "inputs": [
                {
                    "indexed": true,
                    "internalType": "bytes32",
                    "name": "role",
                    "type": "bytes32"
                },
                {
                    "indexed": true,
                    "internalType": "bytes32",
                    "name": "previousAdminRole",
                    "type": "bytes32"
                },
                {
                    "indexed": true,
                    "internalType": "bytes32",
                    "name": "newAdminRole",
                    "type": "bytes32"
                }
            ],
            "name": "RoleAdminChanged",
            "type": "event"
        },
        {
            "anonymous": false,
            "inputs": [
                {
                    "indexed": true,
                    "internalType": "bytes32",
                    "name": "role",
                    "type": "bytes32"
                },
                {
                    "indexed": true,
                    "internalType": "address",
                    "name": "account",
                    "type": "address"
                },
                {
                    "indexed": true,
                    "internalType": "address",
                    "name": "sender",
                    "type": "address"
                }
            ],
            "name": "RoleGranted",
            "type": "event"
        },
        {
            "anonymous": false,
            "inputs": [
                {
                    "indexed": true,
                    "internalType": "bytes32",
                    "name": "role",
                    "type": "bytes32"
                },
                {
                    "indexed": true,
                    "internalType": "address",
                    "name": "account",
                    "type": "address"
                },
                {
                    "indexed": true,
                    "internalType": "address",
                    "name": "sender",
                    "type": "address"
                }
            ],
            "name": "RoleRevoked",
            "type": "event"
        },
        {
            "anonymous": false,
            "inputs": [
                {
                    "indexed": true,
                    "internalType": "address",
                    "name": "from",
                    "type": "address"
                },
                {
                    "indexed": true,
                    "internalType": "address",
                    "name": "to",
                    "type": "address"
                },
                {
                    "indexed": false,
                    "internalType": "uint256",
                    "name": "value",
                    "type": "uint256"
                }
            ],
            "name": "Transfer",
            "type": "event"
        },
        {
            "anonymous": false,
            "inputs": [
                {
                    "indexed": false,
                    "internalType": "address",
                    "name": "account",
                    "type": "address"
                }
            ],
            "name": "Unpaused",
            "type": "event"
        },
        {
            "inputs": [],
            "name": "DEFAULT_ADMIN_ROLE",
            "outputs": [
                {
                    "internalType": "bytes32",
                    "name": "",
                    "type": "bytes32"
                }
            ],
            "stateMutability": "view",
            "type": "function"
        },
        {
            "inputs": [],
            "name": "MINTER_ROLE",
            "outputs": [
                {
                    "internalType": "bytes32",
                    "name": "",
                    "type": "bytes32"
                }
            ],
            "stateMutability": "view",
            "type": "function"
        },
        {
            "inputs": [],
            "name": "PAUSER_ROLE",
            "outputs": [
                {
                    "internalType": "bytes32",
                    "name": "",
                    "type": "bytes32"
                }
            ],
            "stateMutability": "view",
            "type": "function"
        },
        {
            "inputs": [
                {
                    "internalType": "address",
                    "name": "owner",
                    "type": "address"
                },
                {
                    "internalType": "address",
                    "name": "spender",
                    "type": "address"
                }
            ],
            "name": "allowance",
            "outputs": [
                {
                    "internalType": "uint256",
                    "name": "",
                    "type": "uint256"
                }
            ],
            "stateMutability": "view",
            "type": "function"
        },
        {
            "inputs": [
                {
                    "internalType": "address",
                    "name": "spender",
                    "type": "address"
                },
                {
                    "internalType": "uint256",
                    "name": "amount",
                    "type": "uint256"
                }
            ],
            "name": "approve",
            "outputs": [
                {
                    "internalType": "bool",
                    "name": "",
                    "type": "bool"
                }
            ],
            "stateMutability": "nonpayable",
            "type": "function"
        },
        {
            "inputs": [
                {
                    "internalType": "uint256",
                    "name": "",
                    "type": "uint256"
                }
            ],
            "name": "awards",
            "outputs": [
                {
                    "internalType": "string",
                    "name": "awardeeName",
                    "type": "string"
                },
                {
                    "internalType": "string",
                    "name": "cageCode",
                    "type": "string"
                },
                {
                    "internalType": "string",
                    "name": "naicsCode",
                    "type": "string"
                },
                {
                    "internalType": "string",
                    "name": "grantNumber",
                    "type": "string"
                },
                {
                    "internalType": "uint256",
                    "name": "laborCLINValue",
                    "type": "uint256"
                },
                {
                    "internalType": "uint256",
                    "name": "travelCLINValue",
                    "type": "uint256"
                },
                {
                    "internalType": "uint256",
                    "name": "odcValue",
                    "type": "uint256"
                },
                {
                    "internalType": "uint256",
                    "name": "totalAwardValue",
                    "type": "uint256"
                },
                {
                    "internalType": "bool",
                    "name": "completed",
                    "type": "bool"
                }
            ],
            "stateMutability": "view",
            "type": "function"
        },
        {
            "inputs": [
                {
                    "internalType": "address",
                    "name": "account",
                    "type": "address"
                }
            ],
            "name": "balanceOf",
            "outputs": [
                {
                    "internalType": "uint256",
                    "name": "",
                    "type": "uint256"
                }
            ],
            "stateMutability": "view",
            "type": "function"
        },
        {
            "inputs": [
                {
                    "internalType": "uint256",
                    "name": "amount",
                    "type": "uint256"
                }
            ],
            "name": "burn",
            "outputs": [],
            "stateMutability": "nonpayable",
            "type": "function"
        },
        {
            "inputs": [
                {
                    "internalType": "address",
                    "name": "account",
                    "type": "address"
                },
                {
                    "internalType": "uint256",
                    "name": "amount",
                    "type": "uint256"
                }
            ],
            "name": "burnFrom",
            "outputs": [],
            "stateMutability": "nonpayable",
            "type": "function"
        },
        {
            "inputs": [
                {
                    "internalType": "string",
                    "name": "_awardeeName",
                    "type": "string"
                },
                {
                    "internalType": "string",
                    "name": "_cageCode",
                    "type": "string"
                },
                {
                    "internalType": "string",
                    "name": "_naicsCode",
                    "type": "string"
                },
                {
                    "internalType": "string",
                    "name": "_grantNumber",
                    "type": "string"
                },
                {
                    "internalType": "uint256",
                    "name": "_laborCLINValue",
                    "type": "uint256"
                },
                {
                    "internalType": "uint256",
                    "name": "_travelCLINValue",
                    "type": "uint256"
                },
                {
                    "internalType": "uint256",
                    "name": "_odcValue",
                    "type": "uint256"
                },
                {
                    "internalType": "uint256",
                    "name": "_totalAwardValue",
                    "type": "uint256"
                }
            ],
            "name": "createGrant",
            "outputs": [],
            "stateMutability": "nonpayable",
            "type": "function"
        },
        {
            "inputs": [],
            "name": "decimals",
            "outputs": [
                {
                    "internalType": "uint8",
                    "name": "",
                    "type": "uint8"
                }
            ],
            "stateMutability": "view",
            "type": "function"
        },
        {
            "inputs": [
                {
                    "internalType": "address",
                    "name": "spender",
                    "type": "address"
                },
                {
                    "internalType": "uint256",
                    "name": "subtractedValue",
                    "type": "uint256"
                }
            ],
            "name": "decreaseAllowance",
            "outputs": [
                {
                    "internalType": "bool",
                    "name": "",
                    "type": "bool"
                }
            ],
            "stateMutability": "nonpayable",
            "type": "function"
        },
        {
            "inputs": [
                {
                    "internalType": "bytes32",
                    "name": "role",
                    "type": "bytes32"
                }
            ],
            "name": "getRoleAdmin",
            "outputs": [
                {
                    "internalType": "bytes32",
                    "name": "",
                    "type": "bytes32"
                }
            ],
            "stateMutability": "view",
            "type": "function"
        },
        {
            "inputs": [
                {
                    "internalType": "bytes32",
                    "name": "role",
                    "type": "bytes32"
                },
                {
                    "internalType": "address",
                    "name": "account",
                    "type": "address"
                }
            ],
            "name": "grantRole",
            "outputs": [],
            "stateMutability": "nonpayable",
            "type": "function"
        },
        {
            "inputs": [
                {
                    "internalType": "bytes32",
                    "name": "role",
                    "type": "bytes32"
                },
                {
                    "internalType": "address",
                    "name": "account",
                    "type": "address"
                }
            ],
            "name": "hasRole",
            "outputs": [
                {
                    "internalType": "bool",
                    "name": "",
                    "type": "bool"
                }
            ],
            "stateMutability": "view",
            "type": "function"
        },
        {
            "inputs": [
                {
                    "internalType": "address",
                    "name": "spender",
                    "type": "address"
                },
                {
                    "internalType": "uint256",
                    "name": "addedValue",
                    "type": "uint256"
                }
            ],
            "name": "increaseAllowance",
            "outputs": [
                {
                    "internalType": "bool",
                    "name": "",
                    "type": "bool"
                }
            ],
            "stateMutability": "nonpayable",
            "type": "function"
        },
        {
            "inputs": [
                {
                    "internalType": "address",
                    "name": "to",
                    "type": "address"
                },
                {
                    "internalType": "uint256",
                    "name": "amount",
                    "type": "uint256"
                }
            ],
            "name": "mint",
            "outputs": [],
            "stateMutability": "nonpayable",
            "type": "function"
        },
        {
            "inputs": [],
            "name": "name",
            "outputs": [
                {
                    "internalType": "string",
                    "name": "",
                    "type": "string"
                }
            ],
            "stateMutability": "view",
            "type": "function"
        },
        {
            "inputs": [],
            "name": "pause",
            "outputs": [],
            "stateMutability": "nonpayable",
            "type": "function"
        },
        {
            "inputs": [],
            "name": "paused",
            "outputs": [
                {
                    "internalType": "bool",
                    "name": "",
                    "type": "bool"
                }
            ],
            "stateMutability": "view",
            "type": "function"
        },
        {
            "inputs": [
                {
                    "internalType": "bytes32",
                    "name": "role",
                    "type": "bytes32"
                },
                {
                    "internalType": "address",
                    "name": "account",
                    "type": "address"
                }
            ],
            "name": "renounceRole",
            "outputs": [],
            "stateMutability": "nonpayable",
            "type": "function"
        },
        {
            "inputs": [
                {
                    "internalType": "bytes32",
                    "name": "role",
                    "type": "bytes32"
                },
                {
                    "internalType": "address",
                    "name": "account",
                    "type": "address"
                }
            ],
            "name": "revokeRole",
            "outputs": [],
            "stateMutability": "nonpayable",
            "type": "function"
        },
        {
            "inputs": [
                {
                    "internalType": "bytes4",
                    "name": "interfaceId",
                    "type": "bytes4"
                }
            ],
            "name": "supportsInterface",
            "outputs": [
                {
                    "internalType": "bool",
                    "name": "",
                    "type": "bool"
                }
            ],
            "stateMutability": "view",
            "type": "function"
        },
        {
            "inputs": [],
            "name": "symbol",
            "outputs": [
                {
                    "internalType": "string",
                    "name": "",
                    "type": "string"
                }
            ],
            "stateMutability": "view",
            "type": "function"
        },
        {
            "inputs": [],
            "name": "totalSupply",
            "outputs": [
                {
                    "internalType": "uint256",
                    "name": "",
                    "type": "uint256"
                }
            ],
            "stateMutability": "view",
            "type": "function"
        },
        {
            "inputs": [
                {
                    "internalType": "address",
                    "name": "recipient",
                    "type": "address"
                },
                {
                    "internalType": "uint256",
                    "name": "amount",
                    "type": "uint256"
                }
            ],
            "name": "transfer",
            "outputs": [
                {
                    "internalType": "bool",
                    "name": "",
                    "type": "bool"
                }
            ],
            "stateMutability": "nonpayable",
            "type": "function"
        },
        {
            "inputs": [
                {
                    "internalType": "address",
                    "name": "sender",
                    "type": "address"
                },
                {
                    "internalType": "address",
                    "name": "recipient",
                    "type": "address"
                },
                {
                    "internalType": "uint256",
                    "name": "amount",
                    "type": "uint256"
                }
            ],
            "name": "transferFrom",
            "outputs": [
                {
                    "internalType": "bool",
                    "name": "",
                    "type": "bool"
                }
            ],
            "stateMutability": "nonpayable",
            "type": "function"
        },
        {
            "inputs": [],
            "name": "unpause",
            "outputs": [],
            "stateMutability": "nonpayable",
            "type": "function"
        }
    ],
    "bytecode": "60806040523480156200001157600080fd5b50604080518082018252600b81526a4e5346546f6b656e30303160a81b6020808301918252835180850190945260048452634e53463160e01b9084015281519192916200006191600391620001a3565b50805162000077906004906020840190620001a3565b50506006805460ff191690555062000091600033620000ef565b620000bd7f65d7a28e3265b37a6474929f336521b332c1681b933f6cb9f3376673440d862a33620000ef565b620000e97f9f2df0fed2c77648de5860a4cc508cd0818c85b8b8a1ab4ceeef8d981c8956a633620000ef565b62000286565b620000fb8282620000ff565b5050565b60008281526005602090815260408083206001600160a01b038516845290915290205460ff16620000fb5760008281526005602090815260408083206001600160a01b03851684529091529020805460ff191660011790556200015f3390565b6001600160a01b0316816001600160a01b0316837f2f8788117e7eff1d82e926ec794901d17c78024a50270940304540a733656f0d60405160405180910390a45050565b828054620001b19062000249565b90600052602060002090601f016020900481019282620001d5576000855562000220565b82601f10620001f057805160ff191683800117855562000220565b8280016001018555821562000220579182015b828111156200022057825182559160200191906001019062000203565b506200022e92915062000232565b5090565b5b808211156200022e576000815560010162000233565b600181811c908216806200025e57607f821691505b602082108114156200028057634e487b7160e01b600052602260045260246000fd5b50919050565b611bca80620002966000396000f3fe608060405234801561001057600080fd5b50600436106101c45760003560e01c806370a08231116100f9578063a457c2d711610097578063d547741f11610071578063d547741f146103ab578063dd62ed3e146103be578063e63ab1e9146103f7578063fc5a5b631461041e57600080fd5b8063a457c2d71461035e578063a9059cbb14610371578063d53913931461038457600080fd5b80638d29ecb4116100d35780638d29ecb41461032857806391d148541461033b57806395d89b411461034e578063a217fddf1461035657600080fd5b806370a08231146102e457806379cc67901461030d5780638456cb591461032057600080fd5b8063313ce567116101665780633f4ba83a116101405780633f4ba83a146102ab57806340c10f19146102b357806342966c68146102c65780635c975abb146102d957600080fd5b8063313ce5671461027657806336568abe14610285578063395093511461029857600080fd5b806318160ddd116101a257806318160ddd1461021957806323b872dd1461022b578063248a9ca31461023e5780632f2ff15d1461026157600080fd5b806301ffc9a7146101c957806306fdde03146101f1578063095ea7b314610206575b600080fd5b6101dc6101d73660046116be565b610446565b60405190151581526020015b60405180910390f35b6101f961047d565b6040516101e89190611740565b6101dc61021436600461176f565b61050f565b6002545b6040519081526020016101e8565b6101dc610239366004611799565b610525565b61021d61024c3660046117d5565b60009081526005602052604090206001015490565b61027461026f3660046117ee565b6105d4565b005b604051601281526020016101e8565b6102746102933660046117ee565b6105ff565b6101dc6102a636600461176f565b61067d565b6102746106b9565b6102746102c136600461176f565b6106ef565b6102746102d43660046117d5565b610724565b60065460ff166101dc565b61021d6102f236600461181a565b6001600160a01b031660009081526020819052604090205490565b61027461031b36600461176f565b61072e565b6102746107af565b6102746103363660046118d8565b6107e2565b6101dc6103493660046117ee565b610911565b6101f961093c565b61021d600081565b6101dc61036c36600461176f565b61094b565b6101dc61037f36600461176f565b6109e4565b61021d7f9f2df0fed2c77648de5860a4cc508cd0818c85b8b8a1ab4ceeef8d981c8956a681565b6102746103b93660046117ee565b6109f1565b61021d6103cc3660046119a9565b6001600160a01b03918216600090815260016020908152604080832093909416825291909152205490565b61021d7f65d7a28e3265b37a6474929f336521b332c1681b933f6cb9f3376673440d862a81565b61043161042c3660046117d5565b610a17565b6040516101e8999897969594939291906119d3565b60006001600160e01b03198216637965db0b60e01b148061047757506301ffc9a760e01b6001600160e01b03198316145b92915050565b60606003805461048c90611a53565b80601f01602080910402602001604051908101604052809291908181526020018280546104b890611a53565b80156105055780601f106104da57610100808354040283529160200191610505565b820191906000526020600020905b8154815290600101906020018083116104e857829003601f168201915b5050505050905090565b600061051c338484610c99565b50600192915050565b6000610532848484610dbd565b6001600160a01b0384166000908152600160209081526040808320338452909152902054828110156105bc5760405162461bcd60e51b815260206004820152602860248201527f45524332303a207472616e7366657220616d6f756e74206578636565647320616044820152676c6c6f77616e636560c01b60648201526084015b60405180910390fd5b6105c98533858403610c99565b506001949350505050565b6000828152600560205260409020600101546105f08133610f98565b6105fa8383610ffc565b505050565b6001600160a01b038116331461066f5760405162461bcd60e51b815260206004820152602f60248201527f416363657373436f6e74726f6c3a2063616e206f6e6c792072656e6f756e636560448201526e103937b632b9903337b91039b2b63360891b60648201526084016105b3565b6106798282611082565b5050565b3360008181526001602090815260408083206001600160a01b0387168452909152812054909161051c9185906106b4908690611aa4565b610c99565b7f65d7a28e3265b37a6474929f336521b332c1681b933f6cb9f3376673440d862a6106e48133610f98565b6106ec6110e9565b50565b7f9f2df0fed2c77648de5860a4cc508cd0818c85b8b8a1ab4ceeef8d981c8956a661071a8133610f98565b6105fa838361117c565b6106ec3382611267565b600061073a83336103cc565b9050818110156107985760405162461bcd60e51b8152602060048201526024808201527f45524332303a206275726e20616d6f756e74206578636565647320616c6c6f77604482015263616e636560e01b60648201526084016105b3565b6107a58333848403610c99565b6105fa8383611267565b7f65d7a28e3265b37a6474929f336521b332c1681b933f6cb9f3376673440d862a6107da8133610f98565b6106ec6113c1565b604080516101208101825289815260208082018a9052918101889052606081018790526080810186905260a0810185905260c0810184905260e081018390526000610100820181905260078054600181018255915281518051929360099092027fa66cc928b5edb82af9bd49922954155ab7b0942694bea4ce44661d9a8736c68801926108729284920190611625565b50602082810151805161088b9260018501920190611625565b50604082015180516108a7916002840191602090910190611625565b50606082015180516108c3916003840191602090910190611625565b506080820151600482015560a0820151600582015560c0820151600682015560e08201516007820155610100909101516008909101805460ff19169115159190911790555050505050505050565b60009182526005602090815260408084206001600160a01b0393909316845291905290205460ff1690565b60606004805461048c90611a53565b3360009081526001602090815260408083206001600160a01b0386168452909152812054828110156109cd5760405162461bcd60e51b815260206004820152602560248201527f45524332303a2064656372656173656420616c6c6f77616e63652062656c6f77604482015264207a65726f60d81b60648201526084016105b3565b6109da3385858403610c99565b5060019392505050565b600061051c338484610dbd565b600082815260056020526040902060010154610a0d8133610f98565b6105fa8383611082565b60078181548110610a2757600080fd5b9060005260206000209060090201600091509050806000018054610a4a90611a53565b80601f0160208091040260200160405190810160405280929190818152602001828054610a7690611a53565b8015610ac35780601f10610a9857610100808354040283529160200191610ac3565b820191906000526020600020905b815481529060010190602001808311610aa657829003601f168201915b505050505090806001018054610ad890611a53565b80601f0160208091040260200160405190810160405280929190818152602001828054610b0490611a53565b8015610b515780601f10610b2657610100808354040283529160200191610b51565b820191906000526020600020905b815481529060010190602001808311610b3457829003601f168201915b505050505090806002018054610b6690611a53565b80601f0160208091040260200160405190810160405280929190818152602001828054610b9290611a53565b8015610bdf5780601f10610bb457610100808354040283529160200191610bdf565b820191906000526020600020905b815481529060010190602001808311610bc257829003601f168201915b505050505090806003018054610bf490611a53565b80601f0160208091040260200160405190810160405280929190818152602001828054610c2090611a53565b8015610c6d5780601f10610c4257610100808354040283529160200191610c6d565b820191906000526020600020905b815481529060010190602001808311610c5057829003601f168201915b505050600484015460058501546006860154600787015460089097015495969295919450925060ff1689565b6001600160a01b038316610cfb5760405162461bcd60e51b8152602060048201526024808201527f45524332303a20617070726f76652066726f6d20746865207a65726f206164646044820152637265737360e01b60648201526084016105b3565b6001600160a01b038216610d5c5760405162461bcd60e51b815260206004820152602260248201527f45524332303a20617070726f766520746f20746865207a65726f206164647265604482015261737360f01b60648201526084016105b3565b6001600160a01b0383811660008181526001602090815260408083209487168084529482529182902085905590518481527f8c5be1e5ebec7d5bd14f71427d1e84f3dd0314c0f7b2291e5b200ac8c7c3b925910160405180910390a3505050565b6001600160a01b038316610e215760405162461bcd60e51b815260206004820152602560248201527f45524332303a207472616e736665722066726f6d20746865207a65726f206164604482015264647265737360d81b60648201526084016105b3565b6001600160a01b038216610e835760405162461bcd60e51b815260206004820152602360248201527f45524332303a207472616e7366657220746f20746865207a65726f206164647260448201526265737360e81b60648201526084016105b3565b610e8e83838361143c565b6001600160a01b03831660009081526020819052604090205481811015610f065760405162461bcd60e51b815260206004820152602660248201527f45524332303a207472616e7366657220616d6f756e7420657863656564732062604482015265616c616e636560d01b60648201526084016105b3565b6001600160a01b03808516600090815260208190526040808220858503905591851681529081208054849290610f3d908490611aa4565b92505081905550826001600160a01b0316846001600160a01b03167fddf252ad1be2c89b69c2b068fc378daa952ba7f163c4a11628f55a4df523b3ef84604051610f8991815260200190565b60405180910390a35b50505050565b610fa28282610911565b61067957610fba816001600160a01b03166014611482565b610fc5836020611482565b604051602001610fd6929190611abc565b60408051601f198184030181529082905262461bcd60e51b82526105b391600401611740565b6110068282610911565b6106795760008281526005602090815260408083206001600160a01b03851684529091529020805460ff1916600117905561103e3390565b6001600160a01b0316816001600160a01b0316837f2f8788117e7eff1d82e926ec794901d17c78024a50270940304540a733656f0d60405160405180910390a45050565b61108c8282610911565b156106795760008281526005602090815260408083206001600160a01b0385168085529252808320805460ff1916905551339285917ff6391f5c32d9c69d2a47ea670b442974b53935d1edc7fd64eb21e047a839171b9190a45050565b60065460ff166111325760405162461bcd60e51b815260206004820152601460248201527314185d5cd8589b194e881b9bdd081c185d5cd95960621b60448201526064016105b3565b6006805460ff191690557f5db9ee0a495bf2e6ff9c91a7834c1ba4fdd244a5e8aa4e537bd38aeae4b073aa335b6040516001600160a01b03909116815260200160405180910390a1565b6001600160a01b0382166111d25760405162461bcd60e51b815260206004820152601f60248201527f45524332303a206d696e7420746f20746865207a65726f20616464726573730060448201526064016105b3565b6111de6000838361143c565b80600260008282546111f09190611aa4565b90915550506001600160a01b0382166000908152602081905260408120805483929061121d908490611aa4565b90915550506040518181526001600160a01b038316906000907fddf252ad1be2c89b69c2b068fc378daa952ba7f163c4a11628f55a4df523b3ef9060200160405180910390a35050565b6001600160a01b0382166112c75760405162461bcd60e51b815260206004820152602160248201527f45524332303a206275726e2066726f6d20746865207a65726f206164647265736044820152607360f81b60648201526084016105b3565b6112d38260008361143c565b6001600160a01b038216600090815260208190526040902054818110156113475760405162461bcd60e51b815260206004820152602260248201527f45524332303a206275726e20616d6f756e7420657863656564732062616c616e604482015261636560f01b60648201526084016105b3565b6001600160a01b0383166000908152602081905260408120838303905560028054849290611376908490611b31565b90915550506040518281526000906001600160a01b038516907fddf252ad1be2c89b69c2b068fc378daa952ba7f163c4a11628f55a4df523b3ef9060200160405180910390a3505050565b60065460ff16156114075760405162461bcd60e51b815260206004820152601060248201526f14185d5cd8589b194e881c185d5cd95960821b60448201526064016105b3565b6006805460ff191660011790557f62e78cea01bee320cd4e420270b5ea74000d11b0c9f74754ebdbfc544b05a25861115f3390565b60065460ff16156105fa5760405162461bcd60e51b815260206004820152601060248201526f14185d5cd8589b194e881c185d5cd95960821b60448201526064016105b3565b60606000611491836002611b48565b61149c906002611aa4565b67ffffffffffffffff8111156114b4576114b4611835565b6040519080825280601f01601f1916602001820160405280156114de576020820181803683370190505b509050600360fc1b816000815181106114f9576114f9611b67565b60200101906001600160f81b031916908160001a905350600f60fb1b8160018151811061152857611528611b67565b60200101906001600160f81b031916908160001a905350600061154c846002611b48565b611557906001611aa4565b90505b60018111156115cf576f181899199a1a9b1b9c1cb0b131b232b360811b85600f166010811061158b5761158b611b67565b1a60f81b8282815181106115a1576115a1611b67565b60200101906001600160f81b031916908160001a90535060049490941c936115c881611b7d565b905061155a565b50831561161e5760405162461bcd60e51b815260206004820181905260248201527f537472696e67733a20686578206c656e67746820696e73756666696369656e7460448201526064016105b3565b9392505050565b82805461163190611a53565b90600052602060002090601f0160209004810192826116535760008555611699565b82601f1061166c57805160ff1916838001178555611699565b82800160010185558215611699579182015b8281111561169957825182559160200191906001019061167e565b506116a59291506116a9565b5090565b5b808211156116a557600081556001016116aa565b6000602082840312156116d057600080fd5b81356001600160e01b03198116811461161e57600080fd5b60005b838110156117035781810151838201526020016116eb565b83811115610f925750506000910152565b6000815180845261172c8160208601602086016116e8565b601f01601f19169290920160200192915050565b60208152600061161e6020830184611714565b80356001600160a01b038116811461176a57600080fd5b919050565b6000806040838503121561178257600080fd5b61178b83611753565b946020939093013593505050565b6000806000606084860312156117ae57600080fd5b6117b784611753565b92506117c560208501611753565b9150604084013590509250925092565b6000602082840312156117e757600080fd5b5035919050565b6000806040838503121561180157600080fd5b8235915061181160208401611753565b90509250929050565b60006020828403121561182c57600080fd5b61161e82611753565b634e487b7160e01b600052604160045260246000fd5b600082601f83011261185c57600080fd5b813567ffffffffffffffff8082111561187757611877611835565b604051601f8301601f19908116603f0116810190828211818310171561189f5761189f611835565b816040528381528660208588010111156118b857600080fd5b836020870160208301376000602085830101528094505050505092915050565b600080600080600080600080610100898b0312156118f557600080fd5b883567ffffffffffffffff8082111561190d57600080fd5b6119198c838d0161184b565b995060208b013591508082111561192f57600080fd5b61193b8c838d0161184b565b985060408b013591508082111561195157600080fd5b61195d8c838d0161184b565b975060608b013591508082111561197357600080fd5b506119808b828c0161184b565b989b979a50959860808101359760a0820135975060c0820135965060e090910135945092505050565b600080604083850312156119bc57600080fd5b6119c583611753565b915061181160208401611753565b60006101208083526119e78184018d611714565b905082810360208401526119fb818c611714565b90508281036040840152611a0f818b611714565b90508281036060840152611a23818a611714565b6080840198909852505060a081019490945260c084019290925260e0830152151561010090910152949350505050565b600181811c90821680611a6757607f821691505b60208210811415611a8857634e487b7160e01b600052602260045260246000fd5b50919050565b634e487b7160e01b600052601160045260246000fd5b60008219821115611ab757611ab7611a8e565b500190565b7f416363657373436f6e74726f6c3a206163636f756e7420000000000000000000815260008351611af48160178501602088016116e8565b7001034b99036b4b9b9b4b733903937b6329607d1b6017918401918201528351611b258160288401602088016116e8565b01602801949350505050565b600082821015611b4357611b43611a8e565b500390565b6000816000190483118215151615611b6257611b62611a8e565b500290565b634e487b7160e01b600052603260045260246000fd5b600081611b8c57611b8c611a8e565b50600019019056fea2646970667358221220ac84c8d4a74cc6212ffdbb4dde8041f9680dd918811a61ee318e58396ab9594c64736f6c63430008090033",
    "sourcePath": "/Users/christopherstone/Documents/GitHub/blockchain-developer-bootcamp-final-project/GrantMgmt/contracts/GovConMgmt.sol",
    "compiler": {
        "name": "solc",
        "version": "0.8.9+commit.e5eed63a"
    },
    "functionHashes": {
        "DEFAULT_ADMIN_ROLE()": "a217fddf",
        "MINTER_ROLE()": "d5391393",
        "PAUSER_ROLE()": "e63ab1e9",
        "allowance(address,address)": "dd62ed3e",
        "approve(address,uint256)": "095ea7b3",
        "awards(uint256)": "fc5a5b63",
        "balanceOf(address)": "70a08231",
        "burn(uint256)": "42966c68",
        "burnFrom(address,uint256)": "79cc6790",
        "createGrant(string,string,string,string,uint256,uint256,uint256,uint256)": "8d29ecb4",
        "decimals()": "313ce567",
        "decreaseAllowance(address,uint256)": "a457c2d7",
        "getRoleAdmin(bytes32)": "248a9ca3",
        "grantRole(bytes32,address)": "2f2ff15d",
        "hasRole(bytes32,address)": "91d14854",
        "increaseAllowance(address,uint256)": "39509351",
        "mint(address,uint256)": "40c10f19",
        "name()": "06fdde03",
        "pause()": "8456cb59",
        "paused()": "5c975abb",
        "renounceRole(bytes32,address)": "36568abe",
        "revokeRole(bytes32,address)": "d547741f",
        "supportsInterface(bytes4)": "01ffc9a7",
        "symbol()": "95d89b41",
        "totalSupply()": "18160ddd",
        "transfer(address,uint256)": "a9059cbb",
        "transferFrom(address,address,uint256)": "23b872dd",
        "unpause()": "3f4ba83a"
    },
    "gasEstimates": {
        "creation": {
            "codeDepositCost": "1422800",
            "executionCost": "infinite",
            "totalCost": "infinite"
        },
        "external": {
            "DEFAULT_ADMIN_ROLE()": "306",
            "MINTER_ROLE()": "284",
            "PAUSER_ROLE()": "283",
            "allowance(address,address)": "infinite",
            "approve(address,uint256)": "24676",
            "awards(uint256)": "infinite",
            "balanceOf(address)": "2586",
            "burn(uint256)": "53103",
            "burnFrom(address,uint256)": "infinite",
            "createGrant(string,string,string,string,uint256,uint256,uint256,uint256)": "infinite",
            "decimals()": "223",
            "decreaseAllowance(address,uint256)": "26922",
            "getRoleAdmin(bytes32)": "2534",
            "grantRole(bytes32,address)": "infinite",
            "hasRole(bytes32,address)": "2721",
            "increaseAllowance(address,uint256)": "27013",
            "mint(address,uint256)": "infinite",
            "name()": "infinite",
            "pause()": "infinite",
            "paused()": "2404",
            "renounceRole(bytes32,address)": "29069",
            "revokeRole(bytes32,address)": "infinite",
            "supportsInterface(bytes4)": "473",
            "symbol()": "infinite",
            "totalSupply()": "2327",
            "transfer(address,uint256)": "53387",
            "transferFrom(address,address,uint256)": "infinite",
            "unpause()": "infinite"
        },
        "internal": {
            "_beforeTokenTransfer(address,address,uint256)": "infinite"
        }
    }
}